:020000040800F2
:10000000D80E0020E94E0008A1020008A302000853
:10001000A7020008AB020008AF02000800000000C1
:10002000000000000000000000000000B302000813
:10003000B502000800000000B7020008B90200087D
:10004000034F0008034F0008034F0008034F000848
:10005000034F0008034F0008034F0008034F000838
:10006000034F0008034F0008034F0008034F000828
:10007000034F0008034F0008034F0008034F000818
:10008000034F0008034F0008034F0008034F000808
:10009000034F0008034F0008034F0008034F0008F8
:1000A000034F0008034F0008034F0008034F0008E8
:1000B000C14E0008D74B0008A94E0008034F0008A6
:1000C000034F0008034F0008034F0008034F0008C8
:1000D000034F00084F060008034F00081D4A0008A0
:1000E000034F0008034F0008034F000800F002F818
:1000F00000F062F80AA090E8000C82448344AAF160
:100100000107DA4501D100F057F8AFF2090EBAE85D
:100110000F0013F0010F18BFFB1A43F0010318473B
:10012000B89F0000D89F00000A444FF0000C10F860
:10013000013B13F0070408BF10F8014B1D1108BF65
:1001400010F8015B641E05D010F8016B641E01F805
:10015000016BF9D113F0080F1EBF10F8014BAD1C55
:100160000C1B09D16D1E58BF01F801CBFAD505E073
:1001700014F8016B01F8016B6D1EF9D59142D6D3CD
:10018000704700000023002400250026103A28BFF5
:1001900078C1FBD8520728BF30C148BF0B607047F9
:1001A000642906F01B84782906F0548400207047E7
:1001B0001FB51FBD10B510BD06F0C6FE1146FFF7F6
:1001C000F7FF00F009F806F0E4FE03B4FFF7F2FFD2
:1001D00003BC00F0EFF9000000F060F900F0C8F98E
:1001E00000F07AFA00F0AAFA4FF4E13000F0F1F9E9
:1001F000472140F2E73001F0B1F801F01EF800F0BD
:10020000A3FB01F054F903F081FB4FF4E13004F05B
:1002100097FB04F0BBFC04F08BFD04F0D6FD6420DA
:1002200000F079F926E0322000F075F90C2312A2D3
:100230000021084600F062FC0C2313A204210020D8
:1002400000F05CFC0C2311A204213C2000F056FCC1
:100250000F4804210268084600F0AEFE0D48042154
:1002600002680E2000F0A8FE0B480068C0430B494E
:10027000C1F8BC01D7E700004441595554432D2D26
:100280004F4C4544000000004C3A2000523A2000F8
:100290002400002028000020BC012242000022424D
:1002A000704700BFFEE700BFFEE700BFFEE700BFEC
:1002B000FEE7704770477047704700000CB500209C
:1002C000019000906C48006840F480306A490860F2
:1002D00000BF6948006800F4003000900198401C9D
:1002E0000190009818B90198B0F5A06FF1D162485B
:1002F000006800F4003010B10120009001E00020FF
:1003000000900098012843D15C48006840F010003C
:100310005A4908600846006820F003000860084653
:10032000006840F002000860534840685249486045
:100330000846406848600846406840F4806048606D
:100340000846406820F47C1048600846406840F445
:10035000E81048600846006840F08070086000BF00
:100360004548006800F000700028F9D04248406815
:1003700020F00300404948600846406840F0020011
:10038000486000BF3C48406800F00C000828F9D1E4
:100390000CBD10B5FFF792FF10BD10B536480068D0
:1003A00040F001003449086008464068344908407C
:1003B0003149486008460068324908402E490860C3
:1003C0000846006820F4802008600846406820F451
:1003D000FE0048604FF41F008860FFF7DAFF4FF01F
:1003E00000602949086010BD10B5002100200022DE
:1003F000214B5B6803F00C0121B1042906D00829C8
:1004000028D107E0214B224C236027E01F4B204CD2
:10041000236023E0184B5B6803F47010164B5B6895
:1004200003F48032022303EB904022B9194B43437B
:10043000174C23600DE0104B5B6803F4003323B1CD
:10044000144B4343124C236003E0104B4343104CC6
:10045000236003E00D4B0E4C236000BF00BF064B32
:100460005B68C3F303130C4CE15C094B1B68CB4086
:10047000074C236010BD0000001002400020024025
:100480000000FFF8FFFFF6FE08ED00E000127A0022
:100490002C00002000093D003000002010B56FF056
:1004A000040004F090FD2E4800682E49B0FBF1F0E6
:1004B0002D4908700846007800EB4001C1EBC010E0
:1004C0004FF6FF7101EAC0002849088010BD0146BF
:1004D000254A12784A434FF0E0235A6100229A617C
:1004E0001A46126942F001021A6100BF4FF0E02281
:1004F000106900F001021AB100F48032002AF5D030
:100500004FF0E022126922F001024FF0E0231A615D
:1005100000229A6170470146144A12884A434FF0FC
:10052000E0235A6100229A611A46126942F00102E0
:100530001A6100BF4FF0E022106900F001021AB109
:1005400000F48032002AF5D04FF0E022126922F048
:1005500001024FF0E0231A6100229A617047000007
:100560002C00002000127A004000002042000020F1
:1005700008B54FF4A06004F0D7FC1D208DF80000F2
:1005800001208DF801008DF802008DF80300684607
:1005900004F0CFFC27208DF8000002208DF8010028
:1005A0008DF8020001208DF80300684604F0C1FCBC
:1005B00008BD0000014600BF704700BF424A1288D4
:1005C00002F04002002AF9D0C2B23F4B1B1D1A8034
:1005D000704710B586B00446012144F2050005F0CD
:1005E0002DF84FF40070ADF8140003208DF81600BC
:1005F00018208DF8170005A9344804F063FD4FF466
:100600008060ADF8140004208DF8170005A92F486C
:1006100004F058FD01940020ADF80800ADF80A0080
:10062000ADF80C00ADF810000C20ADF80E0001A9DB
:10063000254805F0B8FF012240F22551224806F076
:100640004AF80121204806F03AF806B010BD10B56E
:1006500040F225511C4806F023F910B31A4806F061
:100660009FF8C4B21A48007800F08000C8B9184852
:10067000007800F0400060B10A2C03D0002014493B
:10068000087020E01248007840F08000104908709F
:1006900019E00D2C06D10E48007840F040000C49BE
:1006A000087010E00A48007800F03F0009490C5437
:1006B00007480078401C06490870084600783F2823
:1006C00001DD0020087010BD003801400008014025
:1006D000480000202408002008B50121102004F063
:1006E000ADFF4FF40040ADF8000010208DF803007E
:1006F00003208DF8020069460C4804F0E3FC08BDB5
:1007000018B900210A4A11600FE00A490968491C1A
:10071000084A1160814208D105490968C943064A5F
:10072000C2F8BC110021034A11607047001001405B
:10073000BC0122424C0000200000224208B50121E9
:10074000102004F07BFF4FF48040ADF800004820FB
:100750008DF803006946024804F0B4FC08BD0000AF
:100760000010014010B51021F84804F058FD202178
:10077000F64804F054FD2021F44804F052FD102105
:10078000F24804F04EFD10BD10B51021EF4804F002
:1007900046FD2021ED4804F044FD2021EB4804F003
:1007A0003EFD10BD10B51021E84804F038FD1021C1
:1007B000E64804F036FD10BD2DE9F04105462C4613
:1007C0001021E24804F02DFD002619E0274607F02D
:1007D0008007802F04D12021DC4804F020FD03E0B5
:1007E0002021DA4804F01DFD6006040E1021D748D0
:1007F00004F015FD1021D54804F013FD701CC6B29D
:10080000082EE3DBBDE8F08110B50446FFF7AAFF30
:100810007820FFF7D1FFFFF7C5FF0020FFF7CCFFDF
:10082000FFF7C0FF2046FFF7C7FFFFF7BBFFFFF74B
:10083000ABFF10BD10B50446FFF794FF7820FFF71B
:10084000BBFFFFF7AFFF4020FFF7B6FFFFF7AAFFA0
:100850002046FFF7B1FFFFF7A5FFFFF795FF10BD9B
:1008600070B504460D461DB1E0B2FFF7E3FF02E0AC
:10087000E0B2FFF7C9FF70BD70B50646002418E06E
:1008800004F1B0000021FFF7EBFF00210846FFF75D
:10089000E7FF00211020FFF7E3FF002505E001211D
:1008A0003046FFF7DDFF681CC5B2802DF7DB601C0A
:1008B000C4B2082CE4DB70BD06E041F6650100E03F
:1008C000491E0029FCD1401E0028F6D17047014680
:1008D00005E0002001E0421CD0B27B28FBDB0A1EB1
:1008E000A1F10101F5D1704770B504460D4605F13F
:1008F000B0000021FFF7B4FF102141EA14100021DD
:10090000FFF7AEFF04F00F000021FFF7A9FF70BD55
:1009100010B500218D20FFF7A3FF00211420FFF761
:100920009FFF0021AF20FFF79BFF10BD10B50021F6
:100930008D20FFF795FF00211020FFF791FF002188
:10094000AE20FFF78DFF10BD70B5002418E004F154
:10095000B0000021FFF784FF00210846FFF780FF69
:1009600000211020FFF77CFF002505E00121002079
:10097000FFF776FF681CC5B2802DF7DB601CC4B2A0
:10098000082CE4DB70BD70B5002418E004F1B00061
:100990000021FFF765FF00210846FFF761FF0021F6
:1009A0001020FFF75DFF002505E001210846FFF755
:1009B00057FF681CC5B2802DF7DB601CC4B2082C41
:1009C000E4DB70BD2DE9F04707460E469046994698
:1009D00000250024A8F12000C5B27F2F02DD0027EA
:1009E000B01CC6B2B9F1100F24D131463846FFF71A
:1009F0007BFF002408E004EB0511554A505C0121FF
:100A0000FFF72EFF601CC4B2082CF4DB701CC1B2CF
:100A10003846FFF769FF002409E004EB05110831AF
:100A20004B4A505C0121FFF71BFF601CC4B2082C2D
:100A3000F3DB12E031463846FFF756FF00240AE0A8
:100A400005EB4501434A02EB4101085D0121FFF737
:100A500007FF601CC4B2062CF2DBBDE8F08710B5BE
:100A60000246012000E050430B1EA1F10104E1B257
:100A7000F9D110BD2DE9FF5F074691461E460E9D38
:100A80004FF0000A002435E0301B401EC1B20A209E
:100A9000FFF7E5FFB9FBF0F00A21B0FBF1F201FB33
:100AA0001208BAF1000F14D1701EA04211DDB8F186
:100AB000000F0CD1AB4605EBDB71491001FB047153
:100AC000C8B22B4620220199FFF77CFF10E04FF0BF
:100AD000010AAB4605EBDB71491001FB0471C8B29A
:100AE00008F13001CAB22B460199FFF76BFF00BF36
:100AF000601CC4B2B442C7DBBDE8FF9F2DE9F041E2
:100B000005460E4614461F460EE022783B46314607
:100B10002846FFF757FF05F10800C5B2782D02DD22
:100B20000025B01CC6B2641C20780028EDD1BDE8B9
:100B3000F0812DE9F04180460E46154600273146EA
:100B40004046FFF7D1FE002411E0000000080140FC
:100B5000268D0008FE8A0008F74A02EB8511085D21
:100B60000121FFF77DFE781CC7B2601CC4B2102CB7
:100B7000F2DB701CC1B24046FFF7B6FE00240CE069
:100B80006900491CEC4A02EB4111085D0121FFF7A5
:100B900067FE781CC7B2601CC4B2102CF0DBBDE845
:100BA000F0812DE9F05F06460F4690461C46DDF8C1
:100BB00028A04FF0000BE11704EB5171C910A4EB12
:100BC000C10131B92046E11704EB5171C1F3C705EA
:100BD00006E02046E11704EB5171C910491CCDB263
:100BE0003D4615E029463046FFF77EFEB1460BE054
:100BF00059460BF1010B1AF801000121FFF730FEF5
:100C000009F1010000F0FF09C145F1DB681CC5B224
:100C1000A542E7DBBDE8F09F2DE9FF5F86B01446F3
:100C20001D464FF0010A00200390049005904FF0FC
:100C30000109002600BF83460022134620462946AC
:100C400007F030F809D285F00040CDE90040204699
:100C5000019906F09FFF064604E02046294606F06B
:100C600099FF0646304606F0F2FF22462B46CDE9B4
:100C7000000107F051F9074688460022AF4B38467D
:100C8000414607F04BF8CDE9000106F0B3FF83467B
:100C900007E009EB89004FEA40090AF1010000F082
:100CA000FF0A0A2096FBF0F090FBF9F00028F0D143
:100CB00042F2107096FBF0F00A2190FBF1F201FB7A
:100CC0001200C0B28DF80C004FF47A7096FBF0F071
:100CD00090FBF1F201FB1200C0B28DF80D00642010
:100CE00096FBF0F090FBF1F201FB1200C0B28DF820
:100CF0000E000A2096FBF0F090FBF1F201FB1200CF
:100D0000C0B28DF80F000A2096FBF0F100FB1160D5
:100D1000C0B28DF810002E208DF811004FF47A70BB
:100D2000BBFBF0F00A21B0FBF1F201FB12008DF8E1
:100D300012006420BBFBF0F0B0FBF1F201FB1200EB
:100D40008DF813000A20BBFBF0F0B0FBF1F201FBC1
:100D500012008DF814000A20BBFBF0F100FB11B06B
:100D60008DF8150000211498801D03AA115489469E
:100D700008E003A810F80900303003A901F80900C1
:100D800009F10109B9F10A0FF3DB002213462046ED
:100D9000294606F087FF08D20AF1010000F0FF0A99
:100DA0002D20CAF1050103AA50542E208DF8110000
:100DB00000211498801D03AA1154CAF1050003A94B
:100DC00042180C23DDE90610FFF798FE0AB0BDE8D3
:100DD000F09F2DE9F04F89B0824689461746984624
:100DE000DDF84CB00120079000200490059006909B
:100DF0000124002500BF00264FEAC9604FEA1069B0
:100E00003846414606F0C6FE0546284606F036FF3F
:100E10003A464346CDE9000107F07EF8CDE90201EC
:100E20000022464BDDE9020106F078FFCDE9000122
:100E300006F0E0FE064606E004EB84004400079856
:100E4000401CC0B207900A20B5FBF0F0B0FBF4F0F4
:100E50000028F1D142F21070B5FBF0F00A21B0FB8E
:100E6000F1F201FB12008DF810004FF47A70B5FB1F
:100E7000F0F0B0FBF1F201FB12008DF811006420DC
:100E8000B5FBF0F0B0FBF1F201FB12008DF812009F
:100E90000A20B5FBF0F0B0FBF1F201FB12008DF877
:100EA00013002E208DF815004FF47A70B6FBF0F089
:100EB000B0FBF1F201FB12008DF816006420B6FBC6
:100EC000F0F0B0FBF1F201FB12008DF817000A20E0
:100ED000B6FBF0F0B0FBF1F201FB12008DF8180048
:100EE0000A20B6FBF0F100FB11608DF8190000211B
:100EF0000BF1060004AA1154002405E004A8005DCB
:100F0000303004A90855641C0A2CF7DB2E208DF81C
:100F1000150000210BF1060004AA11541298C0F12B
:100F2000050004A942180C2351464846FFF7E6FD88
:100F300009B0BDE8F08F0000500000200088C340D9
:100F40002DE9F04105460F46164600BF05EB450169
:100F50004906080E3946FFF7C7FC00240BE006F1EE
:100F6000100101EB4101FA4A02EB4101085D012148
:100F7000FFF776FC641C062CF1DBBDE8F0812DE95F
:100F8000F04105460F46164600BF05EB45014906F0
:100F9000080E3946FFF7A8FC002409E006EB4601DD
:100FA000EB4A02EB4101085D0121FFF759FC641C8B
:100FB000062CF3DBBDE8F0812DE9F04705468946B4
:100FC00016463446002C22DA6442642094FBF0F189
:100FD00000FB11400A2190FBF1F0C7B20A2094FBFC
:100FE000F0F100FB114000F0FF080D2249462846B1
:100FF000FFF7C5FF691CC8B23A464946FFF7A0FF94
:10100000A91CC8B242464946FFF79AFF20E0642077
:1010100094FBF0F100FB11400A2190FBF1F0C7B204
:101020000A2094FBF0F100FB114000F0FF080B22B6
:1010300049462846FFF7A3FF691CC8B23A4649460D
:10104000FFF77EFFA91CC8B242464946FFF778FF6A
:10105000BDE8F0872DE9F04705468A461646344636
:10106000002C2DDA64420D2251462846FFF787FFF7
:101070000A2094FBF0F100FB1140C7B20A2094FB58
:10108000F0F00A2190FBF1F201FB120000F0FF08E2
:10109000642094FBF0F000F0FF09E91CC8B23A4666
:1010A0005146FFF74DFFA91CC8B242465146FFF713
:1010B00047FF691CC8B24A465146FFF741FF2BE083
:1010C0000B2251462846FFF75AFF0A2094FBF0F105
:1010D00000FB1140C7B20A2094FBF0F00A2190FBFC
:1010E000F1F201FB120000F0FF08642094FBF0F025
:1010F00000F0FF09E91CC8B23A465146FFF720FF4D
:10110000A91CC8B242465146FFF71AFF691CC8B273
:101110004A465146FFF714FFBDE8F0872DE9F05F1E
:1011200005468B4616463446002C00DA64424FF4DE
:101130007A7094FBF0F0C7B24FF47A7094FBF0F140
:1011400000FB1140642190FBF1F000F0FF086420E7
:1011500094FBF0F100FB11400A2190FBF1F000F04C
:10116000FF090A2094FBF0F100FB114000F0FF0A98
:101170003A4659462846FFF7E3FE691CC8B2424684
:101180005946FFF7DDFEA91CC8B24A465946FFF78B
:10119000D7FEE91CC8B252465946FFF7D1FEBDE85A
:1011A000F09F2DE9F05F05460E46144642F210709E
:1011B000B4FBF0F0C7B242F21070B4FBF0F100FBE8
:1011C00011404FF47A71B0FBF1F000F0FF080846CF
:1011D000B4FBF0F100FB11406421B0FBF1F000F032
:1011E000FF096420B4FBF0F100FB11400A21B0FBC1
:1011F000F1FA0A20B4FBF0F100FB114B3A463146FC
:101200002846FFF79DFE691CC8B242463146FFF7EB
:1012100097FEA91CC8B24A463146FFF791FEE91C69
:10122000C8B252463146FFF78BFE291DC8B25A4656
:101230003146FFF785FEBDE8F09F08B50121052086
:1012400004F0FCF90121434804F00DF83020ADF81A
:10125000000010208DF8030003208DF8020069467D
:101260003D4803F02FFF30213B4803F0D8FF4FF4F7
:101270004870FFF750F90021AE20FFF7F1FA002186
:101280000846FFF7EDFA00211020FFF7E9FA0021E8
:101290004020FFF7E5FA0021B020FFF7E1FA002136
:1012A0008120FFF7DDFA0021FF20FFF7D9FA0021A6
:1012B000A120FFF7D5FA0021A620FFF7D1FA0021DF
:1012C000A820FFF7CDFA00213F20FFF7C9FA00213F
:1012D000C820FFF7C5FA0021D320FFF7C1FA00218B
:1012E0000846FFF7BDFA0021D520FFF7B9FA002123
:1012F0008020FFF7B5FA0021D820FFF7B1FA0021CE
:101300000520FFF7ADFA0021D920FFF7A9FA002147
:10131000F120FFF7A5FA0021DA20FFF7A1FA00215A
:101320001220FFF79DFA0021DB20FFF799FA002138
:101330003020FFF795FA00218D20FFF791FA002168
:101340001420FFF78DFA0021AF20FFF789FA08BDBE
:10135000FE8A000800023000000801403EB5054644
:101360000C460121022004F076F9ADF80450ADF8E6
:1013700000400020ADF80600ADF8020069460648BE
:1013800004F094FA01221146034804F006FE0121FC
:10139000014804F0E7FD3EBD0004004070B505467D
:1013A0000C4600F0C7F9D02000F06EFA00F0FFF90B
:1013B00018B100F0DDF9012070BD284600F064FA94
:1013C00000F0F5F9204600F05FFA00F0F0F918B1EE
:1013D00000F0CEF90120EFE700F0CAF90020EBE7BA
:1013E00070B504460025BC2C01DB012510E0622C01
:1013F00001DB02250CE02A2C01DB032508E0142C7C
:1014000001DB042504E00A2C01DB052500E00625AC
:1014100029461A20FFF7C2FF70BD70B50446B4F527
:101420007A7F01DD4FF47A74042C00DA04244FF43F
:101430007A7090FBF4F0401EC5B229461920FFF7E0
:10144000ADFF0546264604EBD671C1F34F00FFF70A
:10145000C7FF70BD70B5044600F06CF9D02000F0F5
:1014600013FA00F0A4F9204600F00EFA00F09FF9FC
:1014700000F060F9D12000F007FA00F098F90020A0
:1014800000F02BFA054600F073F9284670BD10B540
:101490000446E006010E1C20FFF780FF10BD10B5CA
:1014A0000446E006010E1B20FFF778FF10BD10B5C3
:1014B00000F02DF980216B20FFF770FF6420FFF70B
:1014C0002AF800216B20FFF769FF0320FFF7E7FFF1
:1014D0000020FFF7DCFFC820FFF79FFF0021382026
:1014E000FFF75CFF00216A20FFF758FF002123204F
:1014F000FFF754FF80213720FFF750FF7520FFF7DB
:10150000A9FF0446682C0BD101216B20FFF746FF91
:1015100000216C20FFF742FFC820FFF77EFF01E0AB
:10152000012010BD0020FCE72DE9F04106460F46E2
:1015300014461D4600F0FEF8002141EA4601C8B2FB
:1015400000F0A2F900F033F920B100F011F9012008
:10155000BDE8F081384600F097F900F028F900F076
:10156000E9F8012101EB4601C8B200F08DF900F065
:101570001EF90DE0012C04D1002000F0AEF9287016
:1015800003E0012000F0A9F92870601EC4B26D1CB0
:10159000002CEFD100F0ECF80020D9E72DE9F84F4E
:1015A0006B46022241216820FFF7BEFF9DF8010033
:1015B0009DF8001040EA01200FFA80FA504606F02C
:1015C00046FB804600224B4B06F08CF906464A4A01
:1015D0004A4B06F0CBF8044606F096F88346484995
:1015E000584607F0A1F8044607F002F800B2BDE83B
:1015F000F88F2DE9FC4104460D4616466B4606223F
:1016000043216820FFF790FF0746BFB99DF801000E
:101610009DF8001040EA012000B220809DF80300F0
:101620009DF8021040EA012000B228809DF80500D4
:101630009DF8041040EA012000B230803846BDE831
:10164000FC812DE9FC4104460D4616466B460622F8
:101650003B216820FFF768FF0746BFB99DF80100EE
:101660009DF8001040EA012000B220809DF80300A0
:101670009DF8021040EA012000B228809DF8050084
:101680009DF8041040EA012000B230803846BDE8E1
:10169000FC812DE9F04105460E461746984600F0BC
:1016A00049F8002141EA4501C8B200F0EDF800F028
:1016B0007EF820B100F05CF80120BDE8F0813046F2
:1016C00000F0E2F800F073F800240CE018F80400D1
:1016D00000F0DAF800F06BF818B100F049F80120DA
:1016E000EBE7601CC4B2BC42F0DB00F041F8002024
:1016F000E3E7000000407540A4703D0AD743424034
:101700000000C84210B50220FEF7E1FE10BD08B58A
:101710000121082003F092FF1820ADF800001020EE
:101720008DF8030003208DF802006946834803F01A
:10173000C9FC08BD10B58148006820F470407F499D
:1017400008600846006840F44050086001207C4969
:1017500008607C49C1F89001FFF7D4FF0020784968
:101760000860FFF7CFFF00207649C1F8900110BD57
:1017700010B57248006820F470407049086008464F
:10178000006840F44050086000206D49091D086061
:101790006C49C1F88C01FFF7B5FF01206849091DAC
:1017A00008606849C1F88C01FFF7ACFF10BD10B5A7
:1017B00000246248006820F47040604908600846D0
:1017C000006840F40040086001205D490860FFF7B0
:1017D00099FF01205B49C1F89001FFF793FF07E0F3
:1017E000601CC4B2FA2C03DDFFF7C2FF012010BD5C
:1017F0005348803800680028F2D15149091D08601B
:1018000000BFF4E710B500204D49091D08604B48A2
:10181000006820F47040494908600846006840F4B8
:101820004050086000204749C1F88C01FFF76AFF6B
:1018300001204349091D0860FFF764FF002041496A
:10184000C1F8900110BD10B500203D49091D086088
:101850003A48006820F4704038490860084600683B
:1018600040F44050086001203649C1F88C01FFF770
:1018700049FF01203249091D0860FFF743FF00209E
:101880003049C1F8900110BD70B504462B4800687E
:1018900020F47040294908600846006840F4405030
:1018A000086000202649091D0860002512E0E009B3
:1018B000234908606006040E01202249C1F8900106
:1018C000FFF720FF00201E49091D0860FFF71AFFDF
:1018D000681CC5B2082DEADB70BD70B50546002452
:1018E0001648006820F470401449086008460068F3
:1018F00040F400400860002615E000201049091D52
:101900000860FFF7FFFE01200E49C1F89001600654
:10191000040E0B488038006808B1601CC4B2FFF7A1
:10192000F1FE701CC6B2082EE7DB15B9FFF78BFF7E
:1019300001E0FFF767FF204670BD0000000C01408A
:101940008C8121420080214238B50446F74890F846
:101950002400C0B114B10220009001E000200090EA
:10196000F24A1268D17BF14A526810786B46012224
:10197000FFF78FFE10B14FF0FF3038BD9DF800101B
:10198000EA48417423E0E948807A10B94FF0FF300B
:10199000F3E724B1E548407C08B10020EDE714B13D
:1019A0000120009001E000200090E04A1268D17B05
:1019B000DE4A526810786B460122FFF76AFE10B1CA
:1019C0004FF0FF30D9E79DF80010D848417400204F
:1019D000D3E738B500241FE0D4480068C07AA0429D
:1019E00004D0D2480068407DA04200D112E0CF4927
:1019F000496808786B4601222146FFF795FD10B132
:101A00004FF0FF3038BD9DF800202146C8A004F0FB
:101A1000B1FF00BF601CC4B2C44840680079A04256
:101A2000DADC0020EEE770B504460D46BF480068DA
:101A3000C07AA04204D0BD480068407DA04202D1D7
:101A40004FF0FF3070BDB94840680079A04202DC19
:101A50004FF0FF30F6E7B549496808782B46012278
:101A60002146FFF761FDEDE738B50446AF4890F831
:101A70002300A04201D1002038BD14B130200090D5
:101A800001E000200090A948807C20B19DF8000072
:101A900040F002000090A54890F8220020B19DF887
:101AA000000040F080000090A04A1268117D9F4A1B
:101AB000526810786B460122FFF7EBFD10B14FF032
:101AC000FF30D9E7994880F823400020D4E738B5A3
:101AD000044604F0700010B10120009005E014B13C
:101AE0000020009001E040200090904A1268917C14
:101AF0008E4A526810786B460122FFF7CAFD20B16A
:101B000000218A488172481E38BD9DF8000020F0EF
:101B10004001864801730020009004F0400020B985
:101B20009DF8000040F00400009004F0200020B96F
:101B30009DF8000040F00200009004F0100020B971
:101B40009DF8000040F00100009004F0080020B96A
:101B50009DF8000040F038000090744A1268D17C73
:101B6000724A526810786B460122FFF792FD20B14D
:101B700000216E488172481EC6E724B1082C02D0AD
:101B80000020FFF771FF694884720021017532203F
:101B9000FEF7C1FC0020B7E738B504466348807CF7
:101BA000A04201D1002038BD002C46D05F4A126807
:101BB00011795E4A526810786B460122FFF7B4FC37
:101BC00010B14FF0FF30EEE79DF8000020F020004C
:101BD0000090564A12681179544A526810786B4640
:101BE0000122FFF756FD10B14FF0FF30DBE7032075
:101BF000FEF791FC022000904C4890F8220020B1A2
:101C00009DF8000040F080000090484890F82300C4
:101C100020B19DF8000040F030000090434A126867
:101C2000117D424A526810786B460122FFF731FD60
:101C3000002851D04FF0FF30B5E73C4A12681179C7
:101C40003A4A526810786B460122FFF76DFC10B1DA
:101C50004FF0FF30A7E73548807A00F0010028B147
:101C60009DF8000040F02000009004E09DF8000086
:101C700020F0200000902D4A126811792B4A5268FA
:101C800010786B460122FFF704FD10B14FF0FF30D2
:101C900089E70320FEF73FFC244890F8220010B1AA
:101CA0008020009001E000200090204890F8230060
:101CB00020B19DF8000040F0300000901B4A1268EF
:101CC000117D1A4A526810786B460122FFF7E1FC39
:101CD00010B14FF0FF3066E714488474002062E7CB
:101CE00008B51248807A10B94FF0FF3008BD0020C7
:101CF00000900E4A1268D17B0C4A526810786B46ED
:101D00000122FFF7C6FC10B14FF0FF30EEE7074AA3
:101D100012685179054A526810786B460122FFF724
:101D2000B8FC68B14FF0FF30E0E70000D0070020BA
:101D3000252335783A20252335780D0A0000000048
:101D4000F84A12681179F74A526810786B460122F6
:101D5000FFF79FFC10B14FF0FF30C7E7F14890F854
:101D60002400002853D00C200090EE4A126811790C
:101D7000EC4A526810786B460122FFF78AFC10B1DA
:101D80004FF0FF30B2E73220FEF7C5FBC0200090D5
:101D9000E448807A00F0010020B19DF8000040F096
:101DA00020000090DF4A12681179DE4A52681078EC
:101DB0006B460122FFF76DFC10B14FF0FF3095E745
:101DC000D848407C10B10220009001E00020009033
:101DD000D44A1268D17BD34A526810786B460122EC
:101DE000FFF757FC10B14FF0FF307FE70020009065
:101DF000CC4A12685179CB4A526810786B4601225E
:101E0000FFF747FC002855D04FF0FF306EE7042065
:101E10000090C44A12681179C24A526810786B4621
:101E20000122FFF736FC10B14FF0FF305EE7BD48EE
:101E3000807C20B9BB48807A00F0010010B94020B6
:101E4000009001E060200090B64A12681179B54A0E
:101E5000526810786B460122FFF71BFC10B14FF05F
:101E6000FF3043E73220FEF756FBAE48407C10B10E
:101E70000120009001E000200090AA4A1268D17B66
:101E8000A84A526810786B460122FFF702FC10B195
:101E90004FF0FF302AE7A34A12685179A14A5268ED
:101EA0001078A04B10330122FFF7F3FB10B14FF075
:101EB000FF301BE7002019E770B50446002624F028
:101EC0000104984890F8240008B1002070BD95489E
:101ED000807A10B94FF0FF30F8E79248057C807A9D
:101EE0002040904908740846007CA04202D04FF080
:101EF000FF3600E0002614B98A48007D18B10120A1
:101F0000FFF722FD02E00020FFF71EFD3CB1FFF7C6
:101F1000E7FE20B1834805744FF0FF30D6E7304626
:101F2000D4E738B504467F48807A10B94FF0FF30C7
:101F300038BDBC2C02DB0120009015E0622C02DBD6
:101F40000220009010E02A2C02DB032000900BE01E
:101F5000142C02DB0420009006E00A2C02DB052092
:101F6000009001E0062000906E48C07A9DF80010B5
:101F7000884201D10020DBE76A4A12689178694AF9
:101F8000526810786B460122FFF783FB10B14FF0C7
:101F9000FF30CDE79DF800106248C1720020C7E70E
:101FA00038B50446282C02DD4FF0FF3038BDDCB9CF
:101FB0000020FFF759FD00208DF8000007208DF864
:101FC0000100584A1268917C564A526810786B4654
:101FD0000222FFF75EFB10B14FF0FF30E6E7002171
:101FE000504801750020E1E70120FFF73DFD20206A
:101FF0008DF80000012C06D100208DF8010005208D
:10200000FFF78FFF17E0052C06DC01208DF801009B
:102010000520FFF786FF0EE0142C06DC02208DF869
:1020200001000A20FFF77DFF05E003208DF8010085
:102030001420FFF776FF9DF80100072101EB8010C7
:10204000C0B28DF80100374A1268917C354A526857
:1020500010786B460222FFF71CFB10B14FF0FF30E7
:10206000A4E708212F488172002101730121017525
:102070000020FFF721FF002098E738B504462948E3
:10208000807A10B94FF0FF3038BD264890F8240010
:1020900010B14FF0FF30F7E72248007D50B134B166
:1020A000282C04DCE0B2FFF77BFF0020ECE70020E7
:1020B000FFF776FF042C01DA042404E0B4F57A7FFC
:1020C00001DD4FF47A744FF47A7090FBF4F0401E07
:1020D000C0B20090134A12685178124A52681078C0
:1020E0006B460122FFF7D5FA10B14FF0FF30CBE776
:1020F0009DF80000401C4FF47A7191FBF0F081B222
:102100000848C1810146C9894810FFF70AFF00202D
:10211000BAE738B504460348807A28B94FF0FF3053
:1021200038BD0000D0070020022C06D0042C07D0B8
:10213000082C08D0102C0CD108E0002000900BE0F7
:102140000820009008E01020009005E01820009082
:1021500002E04FF0FF30E3E700BFF948407A9DF816
:102160000010B0EBE10F01D10020D9E7F44A12686A
:10217000D179F34A526810786B460122FFF789FA49
:1021800010B14FF0FF30CBE79DF80000C110EC48D4
:1021900041720020C4E738B50446E948807A10B996
:1021A0004FF0FF3038BDFA2C09D0B4F5FA7F09D0D2
:1021B000B4F57A7F09D0B4F5FA6F0CD108E00020AD
:1021C00000900BE00820009008E01020009005E04F
:1021D0001820009002E04FF0FF30E3E700BFD8483E
:1021E000007A9DF80010B0EBE10F01D10020D9E793
:1021F000D34A12689179D24A526810786B4601220C
:10220000FFF747FA10B14FF0FF30CBE79DF8000021
:10221000C010CB4908720020C4E71CB580208DF89F
:102220000000C74A1268917CC54A526810786B4614
:102230000122FFF72EFA10B14FF0FF301CBD6420D1
:10224000FEF769F900208DF80000BD4A1268917C04
:10225000BB4A526810786B460122FFF71AFA10B198
:102260004FF0FF30EAE7B64A1268917DB44A5268EF
:1022700010786B460622FFF757F910B14FF0FF3088
:10228000DCE79DF80500C007400F9DF8031001F042
:10229000010140EA41009DF8011001F0010140EA0E
:1022A000010494B1012C03D10121A548C17431E08E
:1022B000022C03D10021A248C1742BE02146A1A029
:1022C00004F058FB4FF0FF30B8E79D4A1268D17810
:1022D0009B4A526810786B460122FFF725F910B12E
:1022E0004FF0FF30AAE79DF8000000F00F042CB972
:1022F0009E4804F03FFB4FF0FF309FE7042C06D1CF
:102300009BA004F037FB01218D48C17402E000213D
:102310008B48C174FF218A488172FF208849087266
:10232000FF2187484172C1724FF6FF71C181FF21C1
:10233000017481740121017380F82210002180F85A
:1023400023104175017516300160416081601638B7
:1023500080F8241080F82510C1844FF4FA60FFF74C
:102360001AFF10B14FF0FF3068E70220FFF7D1FEEF
:1023700010B14FF0FF3061E72A20FFF7D2FD10B116
:102380004FF0FF305AE73220FFF777FE10B14FF0E1
:10239000FF3053E70020FFF78FFD10B14FF0FF3003
:1023A0004CE70020FFF7F8FB10B14FF0FF3045E796
:1023B0000020FFF78CFB002040E770477CB5044607
:1023C0000D465F48807A00F0700010B94FF0FF3082
:1023D0007CBD5B4A1268117B594A526810786B4683
:1023E0000622FFF7A1F810B14FF0FF30F0E79DF89B
:1023F00001009DF8001040EA012000B220809DF805
:1024000003009DF8021040EA012000B260809DF8B0
:1024100005009DF8041040EA012000B2A08015B12B
:102420002846FFF7CAFF0020D2E77CB504460D46D8
:102430004348807A00F0080010B94FF0FF307CBDAF
:102440003F4A1268517B3E4A526810786B4606221A
:10245000FFF76AF810B14FF0FF30F0E79DF8010088
:102460009DF8001040EA012000B220809DF8030092
:102470009DF8021040EA012000B260809DF805003E
:102480009DF8041040EA012000B2A08015B1284652
:10249000FFF793FF0020D2E72DE9FE4F05460C46DB
:1024A0002748807A18B94FF0FF30BDE8FE8F244AE4
:1024B0001268917B224A5268107802AB0222FFF721
:1024C00033F810B14FF0FF30EFE79DF809009DF8A9
:1024D000081040EA012006B214B12046FFF76DFF54
:1024E00017494968C88806F0D7F815490190496826
:1024F000B1F9080006F0B8F88346304606F0B4F8A3
:102500005946009006F00EFA8246019905F07AFFCE
:1025100081461F4905F008FF80464FF08F4106F0C5
:1025200003F9074606F064F828600020BDE710B5FF
:1025300088B004461CB94FF0FF3008B010BD29E048
:10254000D0070020556E737570706F7274656420CB
:10255000736F6674776172652070726F64756374EF
:10256000207265762025642E0A00000088A00008ED
:1025700048616C662073656E7369746976697479F5
:10258000207061727420666F756E642E0A00000000
:1025900000000C42206830B9606820B9A06810B90A
:1025A000002008B010BDFA494968087806AB03223C
:1025B0001146FEF7B9FF10B14FF0FF30F1E79DF87B
:1025C0001800082101EB201000F00F00ADF800000A
:1025D0009DF8190001EB201000F00F00ADF802008B
:1025E0009DF81A0001EB201000F00F00ADF8040078
:1025F00020684100BDF90000403091FBF0F000B2CE
:10260000ADF8100060684100BDF90200403091FB58
:10261000F0F000B2ADF81200A0684100BDF904006E
:10262000403091FBF0F000B2ADF81400D849496891
:10263000087806AB06221146FEF776FF10B14FF080
:10264000FF30AEE79DF819009DF8181040EA012010
:1026500000B2ADF808009DF81B009DF81A1040EA82
:10266000012000B2ADF80A009DF81D009DF81C1075
:1026700040EA012000B2ADF80C00BDF81000BDF832
:102680000810084400B2ADF81000BDF81200BDF803
:102690000A10084400B2ADF81200BDF81400BDF8ED
:1026A0000C10084400B2ADF81400BDF81000000A88
:1026B0008DF81800BDF81000C0B28DF81900BDF8F3
:1026C0001200000A8DF81A00BDF81200C0B28DF891
:1026D0001B00BDF81400000A8DF81C00BDF81400A2
:1026E000C0B28DF81D00AA494968087806AB0622D9
:1026F0001146FEF7CEFF10B14FF0FF3051E700203A
:102700004FE70146A248007A30B1012807D00228DD
:1027100009D003280FD10AE0FA2008800EE04FF418
:10272000FA7008800AE04FF47A70088006E04FF4EF
:10273000FA60088002E00020088000BF00BF00208F
:10274000704701469248407A30B1012807D00228EC
:1027500008D003280CD108E0022008700BE0042008
:10276000087008E00820087005E01020087002E0FA
:102770004FF0FF30704700BF8548C07C18B1087823
:102780004006000E08700020F4E701468048C07A39
:10279000082817D2DFE800F01704070A0D101318F5
:1027A000BC20088013E06220088010E02A20088006
:1027B0000DE0142008800AE00A20088007E00520C8
:1027C000088004E000BF00BF0020088000BF00BFF9
:1027D0000020704701466E4890F8240010B14FF079
:1027E000FF3070476A48C08908800020F9E7014639
:1027F00000200880401E704701464FF0FF307047B0
:1028000001466348007A30B1012807D0022808D079
:1028100003280CD108E05F4808600BE05E480860C0
:1028200008E05E48086005E05D48086002E04FF09F
:10283000FF30704700BF0020FBE701465448407A54
:1028400030B1012808D002280AD0032810D10BE0AB
:102850004FF4804008800EE041F69C7008800AE04A
:102860004FF48050088006E04FF40060088002E0DA
:102870004FF0FF30704700BF4548C07C10B108885A
:10288000401008800020F5E701464148007C0870B0
:102890000020704701463E48807A10B10120087040
:1028A00001E0002008700020704738B50446384821
:1028B000807A10B94FF0FF3038BD354A1268117C6C
:1028C000334A526810786B460222FEF72DFE10B193
:1028D0004FF0FF30F0E79DF801009DF8001040EA4E
:1028E000012000B220800020E6E72DE9FE4F0746D8
:1028F000884692461D46DDF830B000260024244864
:1029000090F8240010B1601EBDE8FE8F00202870F2
:102910001F48807A10B94FF0FF30F5E71C48007C63
:1029200010B94FF0FF30EFE71948007C00F040008D
:1029300008B1B01CC6B21648007C00F0200008B1F7
:10294000B01CC6B21248007C00F0100008B1B01CE8
:10295000C6B20F48007C00F0080008B1B01DC6B236
:102960000B4A1268917A0A4A526810786B46022222
:10297000FEF7DAFD10B14FF0FF30C5E79DF801001A
:102980009DF8001040EA0129B1450BDA0020BBE7B1
:10299000D00700200000034300008342333303428A
:1029A00033338341FC4840684088B9EB600F17DD42
:1029B000F94A1268517CF84A526810786B46012235
:1029C000FEF7B2FD10B14FF0FF309DE79DF800001B
:1029D00000F0100020B1FFF783F96FF0010093E7DA
:1029E0005046FFF7EAFCEC4A1268D17AEA4A52688C
:1029F00010786B463246FEF797FD10B14FF0FF306E
:102A000082E799FBF6F0401E8BF80000002028704A
:102A1000B4422AD0E048007C00F0080028B3601CD3
:102A20001DF800001DF8041040EA012000B2A8F8CB
:102A30000000E01C1DF80010A01C1DF8000041EA79
:102A4000002000B2A8F80200601D1DF80010201D33
:102A50001DF8000041EA002000B2A8F80400287820
:102A600040F008002870A01D84B2B44213D0CA48B8
:102A7000007C00F0400070B1601C1DF800001DF8E3
:102A8000041040EA012000B23880287840F040006D
:102A90002870A01C84B2B44213D0BF48007C00F060
:102AA000200070B1601C1DF800001DF8041040EA01
:102AB000012000B27880287840F020002870A01C07
:102AC00084B2B44213D0B448007C00F0100070B15E
:102AD000601C1DF800001DF8041040EA012000B23F
:102AE000B880287840F010002870A01C84B2002024
:102AF0000AE7F8B504460F461646A74890F82400A2
:102B000010B94FF0FF30F8BDA348807A10B94FF0EC
:102B1000FF30F8E7A04A1268917A9F4A526810780D
:102B20006B460222FEF700FD10B14FF0FF30EAE7DE
:102B30009DF801009DF8001040EA0125A54203DA46
:102B400000203070401EDEE7934840684088B5EBB7
:102B5000600F17DD904A1268517C8F4A52681078D6
:102B60006B460122FEF7E0FC10B14FF0FF30CAE7E0
:102B70009DF8000000F0100020B1FFF7B1F86FF0F1
:102B80000100C0E7E2B2844B1B68D97A824B5B68D4
:102B900018783B46FEF7C8FC10B14FF0FF30B2E7A3
:102BA00095FBF4F0401E30700020ACE701467A48F7
:102BB00080F82210002070477CB5054676494968A8
:102BC000087801AB04220D21FEF7AEFC08B1072006
:102BD0007CBD9DF80700C0F301109DF8041001F0C2
:102BE000E00140EAE1008DF800009DF80700C0F325
:102BF00081009DF8051001F0E00140EAE1008DF848
:102C000001009DF8070000F003009DF8061001F098
:102C1000E00140EAE1008DF8020000241CE01DF80C
:102C2000040018B9002045F8240013E05B4845F87B
:102C3000240006E055F82400594905F075FD45F8D3
:102C400024001DF80400401EC0B20DF80400002846
:102C5000F0D100BF601CC4B2032CE0DB0020B7E75A
:102C60002DE9FE4F06460F4600256846FFF7A4FFF4
:102C7000002442E056F8240057F82410A0EB010A83
:102C8000BAF1000F01DB514601E0CAF1000108462C
:102C900005F0EAFC83464FF08F4105F0B3FB804618
:102CA0005DF82400002105F06FFC16D05DF82410BB
:102CB000404605F0A7FB82464FF07E5105F032FEFC
:102CC000814629F0004A3748416A504605F0F8FD30
:102CD00012D20120A04005430EE03248C1694046AF
:102CE00005F0EEFC05D32F48016A404605F0E8FDEB
:102CF00002D20120A0400543641C032CBADB284605
:102D0000BDE8FE8F2DE9FC5F06460F4600252249EF
:102D10004968087801AB03220D21FEF705FC10B1CC
:102D20000720BDE8FC9F9DF8040000F01F008DF80F
:102D300004009DF8050000F01F008DF805009DF8C7
:102D4000060000F01F008DF80600002462E056F82F
:102D5000240057F82410A0EB010BBBF1000F01DB9E
:102D6000594601E0CBF10001084605F07DFC4FF02B
:102D70008F41009005F046FB814601A8005DC0B37D
:102D80000849086805F088FC83465946064805F05E
:102D900039FB80460FE00000D00700207B14AE3ED8
:102DA0001D5A843F4093000800B04C45FE49404600
:102DB00005F0BAFC804601A8005D401EC0B201A922
:102DC00008550028F2D14146484605F01BFB8346D2
:102DD0004FF07E5105F0A6FD82462AF0004BF348E5
:102DE0008169584605F06CFD13D20120A0400543CF
:102DF0000FE0FFE7ED480169484605F061FC05D3A7
:102E0000EA484169484605F05BFD02D20120A04036
:102E10000543641C032C9ADB284682E72DE9F04F1A
:102E200087B005460C46914601208DF81000002021
:102E30008DF81100DE4A1268917CDD4A52681078E4
:102E400004AB0222FEF725FC20B14FF0FF3007B0A3
:102E5000BDE8F08FC820FDF75EFB00208DF8100064
:102E6000D34A1268D17BD24A5268107804AB01224F
:102E7000FEF70FFC10B14FF0FF30E8E7CC4A1268C4
:102E80005179CB4A5268107804AB0122FEF701FC5D
:102E900010B14FF0FF30DAE7C54A1268917CC44A9E
:102EA0005268107804AB0122FEF7F3FB10B14FF02B
:102EB000FF30CCE7BE4A1268D17DBD4A5268107817
:102EC00004AB0122FEF7E5FB10B14FF0FF30BEE787
:102ED000B74A12681179B64A5268107804AB0122D9
:102EE000FEF7D7FB10B14FF0FF30B0E70C208DF8A4
:102EF0001000AF4A12681179AD4A5268107804ABDD
:102F00000122FEF7C6FB10B14FF0FF309FE70F2004
:102F1000FDF701FBA648806A407A8DF81000A44AAC
:102F200012689178A24A5268107804AB0122FEF729
:102F3000B0FB10B14FF0FF3089E79D48806A007AFE
:102F40008DF810009A4A12685178994A52681078A0
:102F500004AB0122FEF79DFB10B14FF0FF3076E786
:102F6000B9F1000F07D09248806A807A40F0E00003
:102F70008DF8100004E08E48806A807A8DF8100089
:102F80008B4A126891798A4A5268107804AB012200
:102F9000FEF77FFB10B14FF0FF3058E7B9F1000F9B
:102FA00007D08348806AC07A40F0E0008DF81000B6
:102FB00003E07E48C07A8DF810007D4A1268D1790E
:102FC0007B4A5268107804AB0122FEF762FB10B115
:102FD0004FF0FF303BE7B9F1000F02D0C820FDF7FA
:102FE0009AFA40208DF81000714A12681179704ADF
:102FF0005268107804AB0122FEF74BFB10B14FF082
:10300000FF3024E778208DF81000694A1268517962
:10301000674A5268107804AB0122FEF73AFB10B100
:103020004FF0FF3013E761498889FDF774FA0020FB
:103030008DF810005E4A126851795D4A5268107826
:1030400004AB0122FEF725FB10B14FF0FF30FEE686
:10305000574A1268917A564A5268107804AB022295
:10306000FEF762FA10B14FF0FF30F0E69DF8110064
:103070009DF8101040EA012B0C209BFBF0F0C6B22B
:103080000020A86068602860A060606020608246C0
:1030900065E0474A1268D17A454A5268107804AB15
:1030A0000C22FEF741FA10B14FF0FF30CFE69DF849
:1030B00011009DF8101040EA012000B2ADF80800A0
:1030C0009DF813009DF8121040EA012000B2ADF8FF
:1030D0000A009DF815009DF8141040EA012000B286
:1030E000ADF80C00BDF90810206808442060BDF957
:1030F0000A10606808446060BDF90C10A0680844BC
:10310000A0609DF817009DF8161040EA012000B25B
:10311000ADF800009DF819009DF8181040EA012054
:1031200000B2ADF802009DF81B009DF81A1040EAAD
:10313000012000B2ADF80400BDF900102868084471
:103140002860BDF90210686808446860BDF9041081
:10315000A8680844A8600AF1010000F0FF0AB2451F
:1031600097DB1248D0F800C02868C117090441EA6B
:103170001041070462460023384603F0D6FB32466E
:103180000023CDE9020103F0D0FB28600748D0F806
:1031900000C06868C117090441EA1041070462468B
:1031A0000023384606E0000054E3853F40930008C2
:1031B000D007002003F0B9FB32460023CDE902011D
:1031C00003F0B3FB6860FE48D0F800C0A868C117E0
:1031D000090441EA1041070462460023384603F01F
:1031E000A4FB32460023CDE9020103F09EFBA86058
:1031F000F348D0F804C02168C817000440EA114819
:103200000F04624600233846414603F08EFB3246E7
:103210000023CDE9020103F088FB2060E848D0F8E4
:1032200004C06068C117090441EA104107046246FE
:103230000023384603F079FB32460023CDE9020132
:1032400003F073FB6060DE48D0F804C0A068C117CB
:10325000090441EA1041070462460023384603F09E
:1032600064FB32460023CDE9020103F05EFBA0605F
:10327000A068002804DDA068A0F58030A06003E00D
:10328000A06800F58030A0600020E0E538B5044675
:10329000CC4890F82400A04201D1002038BD24B3CE
:1032A000C84890F8250010B94FF0FF30F6E700202D
:1032B000FEF74AFB0020FEF76FFCC249C88CFEF700
:1032C000DCFE00200090BF49496808786B46012267
:1032D0002321FEF7DEF90121BA4880F824100120ED
:1032E000FEF732FBFEF7FCFC13E00020FEF72CFBA0
:1032F000B448007C0090B349496808786B460122C5
:103300002321FEF7C6F90021AE4880F82410FEF70D
:10331000E7FC0020C2E72DE9F04F8DB083460F4651
:1033200002200C90A74890F8240020B10020FFF75D
:10333000ADFF012600E0002603A8FFF7E2F905A88B
:10334000FFF7FFF901A8FFF720FA02A8FFF742FAFA
:103350009C4890F80AA004A8FFF796FA002407E01A
:10336000002239465846FFF759FD00B902E0641CB7
:10337000022CF5DB00BF022C01D1002528E000243F
:1033800007E0012206A909A8FFF748FD00B902E0FD
:10339000641C022CF5DB00BF022C01D1002517E0D4
:1033A00006A93846FFF75CFC00F0FF0809A958465B
:1033B000FFF7A8FC00F0FF090025B9F1000F01D1CB
:1033C00045F00105B8F1000F01D145F0020500BF3D
:1033D000FF207C490872FF217A484172C1724FF682
:1033E000FF71C181FF218172017401210173BDF858
:1033F0000C00FEF7D0FE9DF81400FEF78AFEBDF823
:103400000400FEF78EFDBDF80800FEF736FE5046BC
:10341000FEF75DFB9DF81000FEF74EFD16B1012092
:10342000FFF734FF28460DB0BDE8F08FF8B504462D
:103430000D46164616B94FF0FF30F8BD6148807A48
:1034400010B94FF0FF30F8E720128DF80000E0B21D
:103450008DF801009DF8010028445A4949684989BE
:10346000884202DD4FF0FF30E7E7564A1268117ECE
:10347000544A526810786B460222FEF70AF910B1DE
:103480004FF0FF30D9E7EAB24E4B1B68597D4D4BE8
:103490005B6818783346FEF7FCF810B14FF0FF3048
:1034A000CBE70020C9E7F8B504460D46164616B925
:1034B0004FF0FF30F8BD4348807A10B94FF0FF302D
:1034C000F8E720128DF80000E0B28DF801009DF8B9
:1034D000010028443B4949684989884202DD4FF090
:1034E000FF30E7E7374A1268117E364A5268107893
:1034F0006B460222FEF7CDF810B14FF0FF30D9E74E
:10350000EAB2304B1B68597D2E4B5B681878334606
:10351000FEF70AF810B14FF0FF30CBE70020C9E703
:103520002DE9F04385B005460E469046994625485C
:1035300090F8250020B14FF0FF3005B0BDE8F083D2
:1035400016B94FF0FF30F8E7002423E0281B1028BD
:1035500001DD102000E0281B87B2321939462046D1
:10356000FFF764FF10B14FF0FF30E6E701AA3946DC
:103570002046FFF798FF10B14FF0FF30DDE730191C
:103580003A4601A903F02EFB10B16FF00100D4E719
:10359000E01984B2AC42D9DB4FEA28208DF8000054
:1035A00008F0FF008DF80100064A1268917E054A76
:1035B000526810786B460222FEF76BF838B103E0D0
:1035C00040930008D00700204FF0FF30B5E70121FD
:1035D000FE4880F82510A0F826900020ADE70146AF
:1035E000FA4890F824000870002070474FF0FF3030
:1035F000704702464FF0FF30704701464FF0FF30F2
:103600007047F8B505460F461446002C70D0B5F546
:10361000FF5F01DDFF2605E0202D01DA012601E034
:10362000C5F3471607B90127282C02DD4FF0FF30FC
:10363000F8BDE648407D28BBE44890F8240038B146
:103640000020FFF723FE0121E04880F8201003E06E
:103650000021DE4880F82010DC481630FFF751F8D2
:10366000DA481830FFF76DF8D8481A30FFF78DF8B0
:10367000D6481C30FFF7AEF8D448817A81771F30E6
:10368000FFF702F90020FEF75FF90020FEF788FC43
:1036900000208DF80000CD4A12689178CB4A52681C
:1036A00010786B460122FDF7F4FF10B14FF0FF30A8
:1036B000BEE740208DF80000C44A1268D17BC34A9F
:1036C000526810786B460122FDF7E3FF00B165E018
:1036D0008DF800608DF80170BC4A1268117ABB4AFF
:1036E000526810786B460222FDF7D3FF08B155E00F
:1036F00047E00520FCF70FFFB448407A072101EBB3
:10370000C000C0B28DF80000B04A1268D179AF4A4B
:10371000526810786B460122FDF7BBFF00B13DE017
:1037200020208DF80000012C03D100208DF801002D
:103730000EE0052C03DC01208DF8010008E0142CBC
:1037400003DC02208DF8010002E003208DF8010067
:103750009DF80100072101EB8010C0B28DF8010037
:103760009A4A1268917C994A526810786B460222F4
:10377000FDF78FFF00B111E0012194484175002051
:1037800056E7924A1632002103E0505C00B105E092
:10379000491C0C29F9D34FF0FF3049E7FF208B4932
:1037A0000872FF2189484172C1724FF6FF71C181D1
:1037B000FF2181720174012101730146887FFEF7A8
:1037C00086F98249C88AFEF7E6FC8049087EFEF742
:1037D000A0FC7E49488BFEF7A4FB7C49888BFEF752
:1037E0004CFC7A49C87FFEF767FB784890F82000C8
:1037F00010B10120FFF74AFD0021744841750020F7
:1038000016E770B588B002A905A8FFF784FD044645
:10381000072C3ED101A8FEF7F3FF059804F024FF22
:103820000646019904F080FF054604F0E1FE05908C
:10383000069804F019FF0646019904F075FF054645
:1038400004F0D6FE0690079804F00EFF0646019994
:1038500004F06AFF054604F0CBFE079005A800F0CF
:1038600052FA6846FEF7E9FFBDF800100298484397
:103870000290BDF80010039848430390BDF8001073
:1038800004984843049002A800F0D0FA002008B041
:1038900070BD0120FBE7014691F90020002A01DDFF
:1038A00000201EE091F90020002A01DA042018E02F
:1038B00091F90120002A01DD012012E091F9012097
:1038C000002A01DA05200CE091F90220002A01DD2E
:1038D000022006E091F90220002A01DA062000E029
:1038E0000720704710B504462046FFF7D4FF034673
:1038F000E01CFFF7D0FF43EAC00083B2A01DFFF732
:10390000CAFF43EA801083B2184610BD70B5002488
:10391000FDF7FDFEFEF781FC00283ED17820FEF782
:10392000D6F8C4B20CB1012070BD7820FEF7C4FAFD
:10393000C4B20CB10220F7E76420FEF79EFBC4B2CC
:103940000CB10320F0E700F043F9C4B20CB104203D
:10395000EAE71F48FFF7C6FF054600F043F9C4B287
:103960000CB10520E0E740F2731000F07CFDC4B21A
:103970000CB10620D8E7642000F0EEFAC4B20CB116
:103980000720D1E7FFF73DFF04460120FFF77EFC4B
:10399000C0B204461CB10920C6E70A20C4E700BF34
:1039A000C2E72DE9F04F99B004460D4616464FF098
:1039B0007E574FF000084FF000094FF0000A12A8A0
:1039C00013A918AB0EAACDE9001003E0D007002020
:1039D000FC07002014A916A800F0A4FE18B10120CD
:1039E00019B0BDE8F08FBDF84C0000F480700028DD
:1039F0007ED00E9804F038FE83464FF09D4104F0CF
:103A000001FD07460F9804F02FFE83464FF09D41BD
:103A100004F0F8FC8046109804F026FE83464FF030
:103A20009D4104F0EFFC8146119804F01DFE834691
:103A30004FF09D4104F0E6FC824639464FF080404D
:103A400004F072FE4946059004F06EFE4146079070
:103A50004FF0404004F068FE5146059004F064FECB
:103A60000690079904F060FC834604F031FCCDE930
:103A7000080103F01BFB4FF06632544BCDE90A01FD
:103A800004F04CF9CDE90C0103F03EFE20604946FC
:103A90004FF0804004F048FE4946029004F044FE96
:103AA000414604904FF0404004F03EFE41460290F3
:103AB00004F03AFE0390049904F034FF83464FF07B
:103AC0007E5104F031FC059004F002FCCDE90801C0
:103AD00039464FF0804004F027FE4146039004F041
:103AE00023FE494604904FF0804004F01DFE00E0A4
:103AF00068E05146039004F017FE8346049904F0F1
:103B000013FC059004F0E4FBCDE90601DDE9082390
:103B100003F014FD4FF066322C4BCDE90A0104F09E
:103B2000FDF8CDE90C0103F0EFFD28605146504649
:103B300004F0FAFD49460490484604F0F5FD41467C
:103B40000390404604F0F0FD39460190384604F0F9
:103B5000EBFD0090019904F0E7FB0290039904F05B
:103B6000E1FE8346049904F0DDFE059004F0B0FB0D
:103B7000CDE908015146384604F0D6FD4946049087
:103B8000404604F0D1FD0390049904F0CDFB4FF0C2
:103B90008041059004F0C8FD834604F099FBCDE90F
:103BA0000601DDE9082303F0C9FC4FF06632074B3C
:103BB000CDE90A0104F0B2F8CDE90C0103F0A4FD4F
:103BC000306001E002200BE7002009E766A64C40C8
:103BD00010B5C8234FF48062F74940F6F630FFF77E
:103BE0009FFC10BD10B586B00446F4A00068039099
:103BF000F3A000680290F3A000680190F2A00068B2
:103C0000009004F0030003A9085C8DF8140003A8D9
:103C1000C4F3C101405C8DF8150003A8C4F3811101
:103C2000405C8DF8160004F0030002A9085C8DF8D2
:103C3000100002A8C4F3C101405C8DF8110002A875
:103C4000C4F38111405C8DF8120005AA032140F2F3
:103C50002640FFF7EBFB18B14FF0FF3006B010BD68
:103C600004AA032140F22A40FFF7E0FB10B14FF015
:103C7000FF30F3E7019805900098049004F00400E9
:103C800058B19DF8140040F001008DF814009DF823
:103C9000100040F001008DF8100004F0200058B131
:103CA0009DF8150040F001008DF815009DF81100F9
:103CB00040F001008DF8110004F4807058B19DF8B7
:103CC000160040F001008DF816009DF8120040F03B
:103CD00001008DF8120005AA03214FF48860FFF758
:103CE000A5FB10B14FF0FF30B8E704AA032140F262
:103CF0003140FFF79BFB10B14FF0FF30AEE7B34808
:103D000004810020AAE71FB50446B048007A00F0FD
:103D1000030054F820000190AC48007A00F0040041
:103D200010B1019840420190A848007AC0F3C10048
:103D300054F820000290A548007A00F0200010B14D
:103D4000029840420290A148007AC0F3811054F8D2
:103D5000200003909D48008900F4807010B1039802
:103D6000404203909A49019880FB0101800F40EA8C
:103D7000810001909649029880FB0110820042EA7E
:103D8000917002909249039880FB0110820042EAF0
:103D9000917003900198000E8DF800000198000CBE
:103DA0008DF801000198000A8DF802000198C0B258
:103DB0008DF803006A4604214FF47470FFF736FB58
:103DC00018B14FF0FF3004B010BD0298000E8DF80E
:103DD00000000298000C8DF801000298000A8DF88E
:103DE00002000298C0B28DF803006A4604214FF425
:103DF0007570FFF71BFB10B14FF0FF30E3E703983E
:103E0000000E8DF800000398000C8DF80100039857
:103E1000000A8DF802000398C0B28DF803006A46CC
:103E200004214FF47670FFF701FBCCE770B588B042
:103E3000064601A8FEF701FDBDF804000021C903F4
:103E400041EA5045C4036148007A00F0030056F887
:103E5000200005905D48007A00F0040010B105983C
:103E6000404205905948007AC0F3C10056F820003E
:103E700006905648007A00F0200010B106984042A3
:103E800006905248007AC0F3811056F8200007903F
:103E90004E48008900F4807010B1079840420790A6
:103EA0000598C117A0FB042301FB043100FB05109A
:103EB000810041EA927005900698C117A0FB042387
:103EC00001FB043100FB0510810041EA927006906D
:103ED0000798C117A0FB042301FB043100FB051068
:103EE000810041EA927007900598000E8DF8080055
:103EF0000598000C8DF809000598000A8DF80A0055
:103F00000598C0B28DF80B000698000E8DF80C00D5
:103F10000698000C8DF80D000698000A8DF80E002A
:103F20000698C0B28DF80F000798000E8DF81000AB
:103F30000798000C8DF811000798000A8DF8120000
:103F40000798C0B28DF8130002AA0C214FF4257017
:103F5000FFF76CFA08B070BD30B585B004461DA2FD
:103F600007CA02AB07C3C82C03DD4FF0FF3005B012
:103F700030BDC82090FBF4F0401E85B2280A8DF8B1
:103F80000000E8B28DF801006A46022140F21620D6
:103F9000FFF74CFA10B14FF0FF30E8E702AA0C210E
:103FA00040F6C120FFF742FA10B14FF0FF30DEE7D4
:103FB000064884810020DAE7689300084CCD6C0045
:103FC0000CC92C0036567600264666006408002090
:103FD00009E3CA02FEF2ABC4AAF1DFDFBBAFDFDF49
:103FE0000146FC4880890880002070472DE9FC4785
:103FF00006460F4606F0070010B1B7F5C86F03DD9F
:104000004FF0FF30BDE8FC87384604F045FB8146A1
:10401000F14904F0F7F980466846FEF792FB9DF8F7
:104020000000022806D0042816D0082826D0102820
:1040300048D135E04FF08D41404604F075FB814694
:1040400004F0F2FA84B2E549404604F06DFB814683
:1040500004F0EAFA85B238E04FF08C41404604F0B3
:1040600063FB814604F0E0FA84B2DD49404604F087
:104070005BFB814604F0D8FA85B226E04FF08B4115
:10408000404604F051FB814604F0CEFA84B2D54993
:10409000404604F049FB814604F0C6FA85B214E0BC
:1040A0004FF08A41404604F03FFB814604F0BCFAE1
:1040B00084B2CD49404604F037FB814604F0B4FA9F
:1040C00085B202E04FF0FF309CE700BF20128DF870
:1040D0000400E0B28DF8050028128DF80600E8B261
:1040E0008DF8070006F00100A0B101AA02214FF4EB
:1040F000EA70FFF79BF910B14FF0FF3082E70DF146
:10410000060202214FF49270FFF790F910B14FF0C0
:10411000FF3077E706F00200A0B101AA02214FF4B8
:10412000EC70FFF783F910B14FF0FF306AE70DF143
:10413000060202214FF49470FFF778F910B14FF0A6
:10414000FF305FE706F00400A0B101AA02214FF49E
:10415000EE70FFF76BF910B14FF0FF3052E70DF141
:10416000060202214FF49670FFF760F910B14FF08C
:10417000FF3047E7002045E738B5044600200090AF
:1041800004F0010020B19DF8000040F030000090E4
:1041900004F0020020B19DF8000040F00C000090F7
:1041A00004F0040020B19DF8000040F003000090EE
:1041B0006A4601214FF4A470FFF738F938BD38B5CD
:1041C0000446012C01DA012402E0042C00DD042461
:1041D000601EC0B200906A46012140F24F10FFF706
:1041E00025F938BD38B50446052094FBF0F085B2BA
:1041F00028128DF80000E8B28DF801006A4602210D
:104200004FF4EF70FFF712F938BD38B504460520BA
:1042100094FBF0F085B228128DF80000E8B28DF81A
:1042200001006A4602214FF4ED70FFF7FFF838BD38
:10423000F8B505460E464FF47A7095FBF0F000FB9A
:1042400006F4200E8DF80000200C8DF80100200AE5
:104250008DF80200E0B28DF803006A4604214FF4A5
:10426000AE70FFF7E3F8F8BD38B50446052094FBBF
:10427000F0F084B220128DF80000E0B28DF8010059
:104280006A4602214FF4AD70FFF7D0F838BD38B55B
:104290000446052094FBF0F084B220128DF8000053
:1042A000E0B28DF801006A4602214FF4AC70FFF7CE
:1042B000BDF838BD38B5044614B94FF0FF3038BDED
:1042C0006A4604214FF45870FFF7EDF810B14FF033
:1042D000FF30F4E79DF8000000069DF8011040EA69
:1042E00001409DF8021040EA01209DF803100843A8
:1042F00020600020E3E738B50446200E8DF800006A
:10430000200C8DF80100200A8DF80200E0B28DF833
:1043100003006A4604214FF45870FFF787F838BD50
:1043200038B5044614B94FF0FF3038BD6A46042151
:104330004FF47170FFF7B7F810B14FF0FF30F4E7AA
:104340009DF8000000069DF8011040EA01409DF82C
:10435000021040EA01209DF80310084300EB8000A2
:10436000800020600020E0E738B504461420B4FB4C
:10437000F0F4200E8DF80000200C8DF80100200ACA
:104380008DF80200E0B28DF803006A4604214FF474
:104390007170FFF74BF838BD38B5044664B1202082
:1043A0008DF8000028208DF8010030208DF80200E3
:1043B00038208DF8030004E0A3220421684602F0AF
:1043C0005CFC6A46042140F69E20FFF72FF8FDF7BB
:1043D00087FC38BD640800200000484300004046C8
:1043E0000000C045000040450000C04438B5044608
:1043F00064B1C0208DF80000C2208DF80100C420F7
:104400008DF80200C6208DF8030004E08B22042101
:10441000684602F032FC6A46042140F69820FFF715
:1044200005F8FDF75DFC38BD3EB504466CB1FDA155
:10443000D1E900208968CDE9002002916A4609216E
:104440004FF49760FEF7F2FF3EBDF9A2D2E90010EB
:104450009268CDE9010200916A4609214FF4976004
:10446000FEF7E4FFF0E73EB5044602208DF80000B9
:10447000CA208DF80100E3208DF8020009208DF894
:1044800003006A4604216820FEF7D0FFA3208DF8C0
:10449000000004F0400048B1C0208DF80100C820A1
:1044A0008DF80200C2208DF8030006E0A3208DF8ED
:1044B00001008DF802008DF8030004F4C07048B1CB
:1044C000C4208DF80400CC208DF80500C6208DF89E
:1044D000060006E0A3208DF804008DF805008DF895
:1044E0000600A3208DF807008DF808008DF809005C
:1044F0006A460A2140F6A720FEF798FF04F0030061
:1045000018B120208DF8000002E0D8208DF80000BE
:104510006A46012140F6B620FEF788FF04F020002D
:1045200018B10120FFF780FF02E00020FFF77CFFB9
:1045300004F4C07008B304F4807060B1B2208DF848
:1045400000008B208DF80100B6208DF802009B2022
:104550008DF803000BE0B0208DF8000080208DF86E
:104560000100B4208DF8020090208DF803006A4607
:10457000042140F6A220FEF759FF04F0010020B309
:10458000F8208DF800006A4601214FF40B60FEF719
:104590004DFFFA210720FFF729FD0720FFF7ECFD6B
:1045A0000120FFF70CFE6420FFF71CFE4FF4FA70A9
:1045B000FFF72BFEC821A148FFF73AFE2820FFF79E
:1045C00053FE0A20FFF763FE08E0D8208DF80000B4
:1045D0006A4601214FF40B60FEF728FF04F0020049
:1045E00018B1D9208DF8000002E0D8208DF8000025
:1045F0006A46012140F23D70FEF718FF04F0040006
:1046000018B10120FFF7F2FE02E00020FFF7EEFEF6
:1046100004F0100018B10120FFF7BEFE02E00020F8
:10462000FFF7BAFE44F0080085494881FDF758FBC2
:1046300000208349887304F0400018B10846807B4D
:10464000801D887304F4C07020B17D48807B801D7C
:104650007B49887304F0140020B17948807B1030C6
:104660007749887304F0030020B17548807B001DF2
:104670007349887300203EBD014671484089088017
:10468000002070472DE9F0410446E07800F0C006B4
:10469000E07800F03F05607800F0010098B1EF107D
:1046A0002846E91705EB5171C910A5EBC101491C5A
:1046B00001F0FF086248006820B161484146026885
:1046C0003846904700BF607800F0080030B15C4881
:1046D000406818B1B0115A4A516888470020BDE8B7
:1046E000F08110B586B0044656A207CA03AB07C3D3
:1046F00057A207CA8DE80700012C09D0022C0ED161
:1047000003AA0B2140F68220FEF790FE06B010BDF2
:104710006A460B2140F68220FEF788FEF6E74FF04E
:10472000FF30F3E72DE9F04F8DB007468846154678
:104730009946DDE9166B0024002030804049887BD3
:104740005A4605A9FEF7D5F918B1601E0DB0BDE8AF
:10475000F08F3B48807A00F01400002861D09DF86B
:10476000140000069DF8151040EA01409DF816104F
:1047700040EA01209DF81710084328609DF81800B2
:1047800000069DF8191040EA01409DF81A1040EA11
:1047900001209DF81B10084368609DF81C0000066E
:1047A0009DF81D1040EA01409DF81E1040EA0120CE
:1047B0009DF81F100843A8609DF8200000069DF892
:1047C000211040EA01409DF8221040EA01209DF8A6
:1047D00023100843E86004F11000C4B228680014F4
:1047E0000190686800140290A86800140390E868BB
:1047F0000014049001984043029901FB01000399C1
:1048000001FB0100049901FB010ABAF1706F02DBA0
:10481000BAF1885F22DDFDF763FA00203080401E88
:1048200094E721E0B8AAB38DB4980D355D0000007F
:10483000B8AAAAAAB088C3C5C700000009E3CA0283
:1048400064080020D8B1B9F38BA391B609B4D9009C
:10485000DAB1B9F38BA391B6DAB4DA00B6F9000095
:1048600040F48070308000BF3448807A00F040000F
:1048700020B305A9601C085C095D40EA012000B274
:10488000A8F8000005A9E01C095C05AAA01C105CA2
:1048900041EA002000B2A8F8020005A9601D095CE9
:1048A000201D105C41EA002000B2A8F80400A01D01
:1048B000C4B2B6F9000040F0080030801F484089BB
:1048C00000F4C07008B305A9601C085C095D40EAEB
:1048D000012000B2388005A9E01C095C05AAA01CD3
:1048E000105C41EA002000B2788005A9601D095CD7
:1048F000201D105C41EA002000B2B880A01DC4B2A7
:10490000B6F9000040F0700030800C48807A00F06A
:10491000030018B105A90819FFF7B4FE4846FDF7D2
:104920004CFD002012E7014604480160002070475A
:1049300001460248416000207047000064080020E2
:1049400010B586B004460121082000F077FE012151
:10495000880400F080FE4FF48060ADF8140003205E
:104960008DF8160018208DF8170005A9754800F07D
:10497000A9FB4FF40060ADF8140004208DF8170077
:1049800005A9704800F09EFB01940020ADF80800D6
:10499000ADF80A00ADF80C00ADF810000C20ADF831
:1049A0000E0001A9684801F0FEFD012240F22551E8
:1049B000654801F090FE0121634801F080FE06B0D9
:1049C00010BD10B5044621465F4801F0E5FE00BF6A
:1049D00040215D4801F04EFF0128F9D110BD70B5AE
:1049E00004460D46002605E014F8010BFFF7E9FF29
:1049F000701C86B2AE42F7DB70BD70B5044620462F
:104A000002F01CF986B2002505E014F8010BFFF74F
:104A1000D8FF681C85B2B542F7DB70BD10B540F217
:104A20002551494801F03CFF002847D0464801F095
:104A3000B7FE464908800846008818B9092044494D
:104A4000087036E041480088012802D140490870CA
:104A50002FE03E480088022802D13D49087028E036
:104A60003A480088032802D13949087021E03748C4
:104A70000088042802D1364908701AE033480088BB
:104A8000052802D13249087013E030480088062812
:104A900002D12F4908700CE02C480088072802D169
:104AA0002B49087005E029480088082801D12849C9
:104AB000087027480178244801F06EFE10BD70B5DB
:104AC00004460D462946204601F066FE00BF8021BF
:104AD000204601F0CFFE0028F9D070BD70B5064623
:104AE0000C46002500BF615D3046FFF7E8FF6D1CF6
:104AF000605D0028F7D100BF4021304601F0BAFECA
:104B00000028F9D070BD2DE9F04105460C46260A73
:104B1000E7B23146284601F03FFE00BF802128461B
:104B200001F0A8FE0028F9D03946284601F034FEED
:104B300000BF8021284601F09DFE0028F9D0BDE885
:104B4000F0810000000C01400048004008080020EF
:104B50001C000020002109E0002201E0531C9AB251
:104B600042F614039A42F9DB4B1C99B28142F3DB03
:104B70007047002107E0002201E0531C9AB2092A85
:104B8000FBDB4B1C99B28142F5DB704708B5012174
:104B9000042000F053FD0420ADF8000003208DF840
:104BA000020010208DF803006946574800F08AFA89
:104BB0000421554800F035FB0820ADF80000042022
:104BC0008DF803006946504800F07CFA08214E48F1
:104BD00000F027FB08BD10B501214C4801F08BFC0B
:104BE000F0B10121494801F097FC49480088401C78
:104BF0004749088047480088401C464908800846C5
:104C000000880A280CD100200880022000F027F933
:104C1000404241490860042000F021F93F49086002
:104C200010BD10B50021394801F030FC0020384992
:104C300008800121354801F095F910BD10B500211B
:104C4000324801F08FF910BD10B500BF3048008820
:104C50004FF47A7100FB01F42C4801F03AFC044453
:104C600000202A49243108803220FFF773FF2046B4
:104C700010BD2DE9F84F4FF0000A0024A346A146CD
:104C800031E00120264908601420FFF772FF002060
:104C90002449C1F8880100BF21487C3800680028F9
:104CA000FAD0FFF7BEFF641C00BF1D487C380068C7
:104CB0000128FAD0FFF7C2FFFFF7C6FF8246504631
:104CC00003F0EAFC009003F003FB07460022164BBA
:104CD00002F008FE054602F017FD83464946584695
:104CE00003F022FB8146052CCBD1484603F0F0FAB5
:104CF000074600220D4B02F0F5FD054602F004FDCB
:104D000083465846BDE8F88F000801400004004083
:104D10000A0800200C0800202800002024000020A1
:104D2000880121420000214200004D400000144053
:104D300000B587B00121084600F08DFC0121042058
:104D400000F07CFC0320ADF8000004208DF8030087
:104D50006946614800F0B6F904A801F0D3F80020D4
:104D6000ADF810004FF6FF70ADF814000020ADF85C
:104D70001600ADF8120004A94FF0804000F096FD37
:104D800000231A4603214FF0804001F09EF901A84C
:104D900001F0CBF80A20ADF80C0001A9400701F0A2
:104DA00018F80121880701F0A3FB012211469007A2
:104DB00001F0F3F800214FF0804001F067FB012182
:104DC000880701F0CFF807B000BD00B587B001211A
:104DD000042000F040FC0121082000F02FFCC0203E
:104DE000ADF8000004208DF8030069463B4800F050
:104DF00069F904A801F086F80020ADF810004FF61C
:104E0000FF70ADF814000020ADF81600ADF81200E8
:104E100004A9334800F04AFD00231A460321304814
:104E200001F053F901A801F080F80A20ADF80C0058
:104E300001A92B4800F0CDFF0121294801F058FBC2
:104E400001221146264801F0A8F80021244801F06B
:104E50001DFB0121224801F085F807B000BD014685
:104E6000022904D003290BD0042919D10FE04FF0F7
:104E70008042928C10B200224FF080439A8411E05D
:104E8000184A128810B20022164B1A800AE0144AFF
:104E90002432128810B20022114B24331A8001E010
:104EA000002000BF00BF70470D48103000880C483C
:104EB0001030008820F00100094910310880704747
:104EC0004FF08040008A4FF08040008A20F00100BF
:104ED0004FF080410882704700080140000C0140FB
:104EE0000008004024040040094880470948004762
:104EF000FEE7FEE7FEE7FEE7FEE7FEE7FEE7FEE78A
:104F0000FEE7FEE704480549054A064B70470000E6
:104F10009B030008ED000008D8080020D80E0020F0
:104F2000D80A0020D80A002031490143314A1160D3
:104F3000704770B5002100230F22C47804B32D4CB4
:104F4000246804F4E064C4F5E064210AC1F10403B8
:104F5000CA40447804FA03F18478144021430901DB
:104F6000254C0678A155047804F01F050124AC40B7
:104F700005786D11AD0005F1E025C5F8004109E0A7
:104F8000047804F01F050124AC401C4D067876110E
:104F900045F8264070BD1A4A0A400243154B1B1FB4
:104FA0001A60704739B1134A121D12680243114B3F
:104FB0001B1D1A6006E00F4A121D126882430D4B3A
:104FC0001B1D1A607047042808D14FF0E0210969C1
:104FD00041F004014FF0E022116107E04FF0E021C1
:104FE000096921F004014FF0E022116170470000CF
:104FF0000000FA050CED00E000E400E080E100E0D4
:1050000080FFFF1F10B50446CC48844208D101211F
:10501000042000F02DFB0021042000F029FB46E0D5
:10502000C748844208D10121082000F021FB00215B
:10503000082000F01DFB3AE0C248844208D101215B
:10504000102000F015FB0021102000F011FB2EE0D5
:10505000BD48844208D10121202000F009FB002135
:10506000202000F005FB22E0B848844208D101214D
:10507000402000F0FDFA0021402000F0F9FA16E08F
:10508000B348844208D10121802000F0F1FA0021C8
:10509000802000F0EDFA0AE0AE48844207D10121F9
:1050A000801500F0E5FA0021A01500F0E1FA10BD2E
:1050B00010B50121084600F0DBFA0021012000F0C4
:1050C000D7FA10BD2DE9F041024600250026002048
:1050D00000230024002791F803C00CF00F0591F87D
:1050E00003C00CF0100CBCF1000F03D091F802C00B
:1050F0004CEA050591F800C0BCF1000F31D01468EE
:1051000000202BE04FF0010C0CFA00F3B1F800C0C6
:105110000CEA03069E4220D183004FF00F0C0CFADC
:1051200003F7BC4305FA03FC4CEA040491F803C0FE
:10513000BCF1280F06D14FF0010C0CFA00FCC2F8AC
:1051400014C00AE091F803C0BCF1480F05D14FF03C
:10515000010C0CFA00FCC2F810C0401C0828D1D386
:105160001460B1F800C0BCF1FF0F34DD54680020BA
:105170002EE000F1080C4FF0010808FA0CF3B1F82A
:1051800000C00CEA03069E4221D183004FF00F0CB1
:105190000CFA03F7BC4305FA03FC4CEA040491F84B
:1051A00003C0BCF1280F05D100F1080C08FA0CF877
:1051B000C2F8148091F803C0BCF1480F07D100F188
:1051C000080C4FF0010808FA0CF8C2F81080401CD7
:1051D0000828CED35460BDE8F0814FF6FF710180FE
:1051E000022181700421C17070470246002093683B
:1051F0000B400BB1012000E0002070470146886899
:1052000080B2704702460020D3680B400BB10120EA
:1052100000E0002070470146C86880B27047016115
:105220007047416170470AB1016100E04161704718
:10523000C16070474FF480320A43826181618261AC
:1052400082698269704702460020434B18684FF616
:105250008073184040EA021008433F4B18607047C3
:105260003E49C8617047F0B50A460023002400217A
:10527000002500F00046B6F1004F02D1364EF1692C
:1052800001E0354E7168C0F3034583B200F4401667
:10529000B6F5401F08D121F070612F4E766826F0D8
:1052A00070662D4F7E6012E000F48016B6F5801F08
:1052B00006D1032606FA05F4A14341F0706106E029
:1052C000460D360103FA06F6B14341F0706122B192
:1052D000460D360103FA06F6314300F00046B6F1FA
:1052E000004F02D11C4EF16101E01B4E7160F0BD18
:1052F00030B500228B071C0F0F2303FA04F2164B64
:1053000008338C1053F824309343134C08348D1019
:1053100044F8253023468C1053F824308C07240F92
:1053200000FA04F423430C4C08348D1044F8253063
:1053300030BD0A49DC3108607047000000080140B8
:10534000000C014000100140001401400018014011
:10535000001C0140002001400000014000002042EC
:10536000DF48006840F00100DD49086008464068F9
:10537000DC490840DA49486008460068DA490840D4
:10538000D74908600846006820F480200860084675
:10539000406820F4FE0048604FF41F0088607047AA
:1053A000CF49096821F48031CD4A1160114609685E
:1053B00021F480211160B0F5803F03D0B0F5802F3B
:1053C0000ED106E0C649096841F48031C44A116033
:1053D00007E0C349096841F4A021C14A116000E017
:1053E00000BF00BF704710B5014600220023002017
:1053F0004A11012A02D1BA4C236806E0022A02D1DE
:10540000B74C236A01E0B64C636A01F01F02012425
:1054100094401C400CB1012000E0002010BD38B5C4
:10542000002000900024002500BF3120FFF7DBFFA3
:1054300005460098401C00900098B0F5A06F01D080
:10544000002DF2D03120FFF7CEFF08B1012400E09B
:105450000024204638BD01460020A14A106820F0F3
:10546000F80040EAC10010607047A049086070472A
:10547000024600209A4B586820F47C1042EA01034F
:105480001843974B58607047984908667047014623
:105490000020934A506820F0030008435060704792
:1054A0008F48406800F00C007047014600208C4A8D
:1054B000506820F0F000084350607047014600201B
:1054C000874A506820F4E060084350607047014606
:1054D0000020834A506820F4605040EAC1005060C8
:1054E000704729B17E4A527A02437D4B5A7204E0DA
:1054F0007B4A527A82437A4B5A7270477B49D83141
:105500000860704701460020754A506820F440400A
:105510000843506070470021714A20321170704A70
:1055200082F82010012802D004280AD104E00121C9
:105530006B4A2032117005E00521694A2032117052
:1055400000E000BF00BF70476949086070476449C8
:10555000096A0143624A116270476549443908602B
:10556000704730B500210022002400235C4D6D6897
:1055700005F00C0121B1042905D0082923D105E04B
:105580005C4D056022E05B4D05601FE0544D6D6889
:1055900005F47012524D6D6805F48034022505EB58
:1055A00092421CB9544D554305600BE04C4D6D685B
:1055B00005F400351DB1504D5543056002E04D4DD9
:1055C0005543056002E04B4D056000BF00BF444DF0
:1055D0006D6805F0F0010909484D6B5C0568DD4018
:1055E00045603F4D6D6805F4E061090A434D6B5C11
:1055F0004568DD4085603A4D6D6805F46051C90A23
:105600003E4D6B5C4568DD40C560354D6D6805F409
:105610004041890B3A4D6B5CC568B5FBF3F50561FC
:1056200030BD29B12E4A526902432D4B5A6104E024
:105630002B4A526982432A4B5A61704729B1284A42
:1056400092690243264B9A6104E0254A926982439B
:10565000234B9A61704729B1214AD2690243204BFA
:10566000DA6104E01E4AD26982431D4BDA61704759
:1056700029B11B4AD2680243194BDA6004E0184A88
:10568000D2688243164BDA60704729B1144A126916
:105690000243134B1A6104E0114A12698243104B12
:1056A0001A61704712494039086070470F49C86451
:1056B00070470B49C87170470948406A40F08070D4
:1056C00007494862704701460020054A92680A402F
:1056D0000AB1012000E0002070470149887270473C
:1056E000001002400000FFF8FFFFF6FE00004242FB
:1056F0008004424200127A0000093D000E0800209A
:105700001E08002010B50446FE48844208D101213D
:10571000C014FFF7ADFF0021E014FFF7A9FFC4E0BC
:10572000B4F1804F08D101210846FFF7AEFF0021F8
:105730000120FFF7AAFFB8E0F348844208D1012115
:105740000220FFF7A2FF00210220FFF79EFFACE03E
:10575000EE48844208D101210420FFF796FF002182
:105760000420FFF792FFA0E0E948844208D101211C
:105770000820FFF78AFF00210820FFF786FF94E04A
:10578000E448844208D101211020FFF77EFF002168
:105790001020FFF77AFF88E0DF48844208D101211A
:1057A0002020FFF772FF00212020FFF76EFF7CE032
:1057B000DA48844208D101214014FFF759FF002143
:1057C0006014FFF755FF70E0D548844209D10121EC
:1057D000C804FFF74DFF00214FF40020FFF748FFFA
:1057E00063E0D048844209D101210805FFF740FF5A
:1057F00000214FF48010FFF73BFF56E0CA48844277
:1058000009D101214805FFF733FF00214FF40010B3
:10581000FFF72EFF49E0C548844208D1012140200E
:10582000FFF733FF00214020FFF72FFF3DE0C04886
:10583000844208D101218020FFF727FF002180202A
:10584000FFF723FF31E0BB48844208D101218015D6
:10585000FFF71BFF0021A015FFF717FF25E0B64853
:10586000844209D101210804FFF702FF00214FF40F
:105870008030FFF7FDFE18E0B048844209D10121D5
:105880004804FFF7F5FE00214FF40030FFF7F0FE6B
:105890000BE0AB48844208D101218804FFF7E8FE01
:1058A00000214FF48020FFF7E3FE10BD00220288A4
:1058B000944B98420ED0994B98420BD0B0F1804F48
:1058C00008D0914B984205D0904B984202D0904B13
:1058D000984204D14FF68F731A404B881A438D4B70
:1058E000984207D08C4B984204D04FF6FF431A40A1
:1058F000CB881A4302808B8883850B880385814B74
:1059000098420BD0854B984208D08B4B984205D0DB
:105910008A4B984202D08A4B984201D10B7A038677
:1059200001238382704770B5002400220023058C78
:105930004FF6FE7635400584028C8388048B4FF643
:105940008F752C40B51E2C400D882C43751E2A40A7
:105950000D892A434D882A436A4DA8420BD06F4DCA
:10596000A84208D0744DA84205D0744DA84202D078
:10597000734DA84213D14FF6F7752A404D892A433B
:105980004FF6FB752A408D882A434FF6FF652B4062
:105990004FF6FF552B408D892B43CD892B438380B8
:1059A0000483CD888586028470BD70B500240022F2
:1059B0000023058C4FF6EF7635400584028C8388F2
:1059C000048B48F6FF752C404FF6FF452C400D88A0
:1059D0004FF6FF7606EA05252C434FF6DF752A4081
:1059E0000D8906EA05152A434D8806EA05152A435E
:1059F000444DA84202D0494DA8421DD14FF67F75B3
:105A00002A404D894FF6FF7606EA05152A434FF6E0
:105A1000BF752A408D8806EA05152A434FF6FF35E3
:105A20002B404FF2FF752B408D8906EA85052B43ED
:105A3000CD8906EA85052B4383800483CD880587BD
:105A4000028470BD70B5002400220023058C4FF63F
:105A5000FF6635400584028C8388848B4FF68F75F2
:105A60002C404FF6FC752C400D882C434FF6FF550B
:105A70002A400D894FF6FF7606EA05252A434D8810
:105A800006EA05252A431F4DA84202D0234DA8420D
:105A90001DD14FF2FF752A404D894FF6FF7606EA79
:105AA00005252A434FF6FF352A408D8806EA05254D
:105AB0002A434EF6FF752B404DF6FF752B408D891E
:105AC00006EA05152B43CD8906EA05152B4383808D
:105AD0008483CD888587028470BD70B50022002341
