:020000040800F2
:10000000400F0020D95600087D0200087F0200083A
:1000100083020008870200088B020008000000002D
:100020000000000000000000000000008F02000837
:1000300091020008000000009302000895020008E9
:10004000F3560008F3560008F3560008F35600086C
:10005000F3560008F3560008F3560008F35600085C
:100060004B560008F3560008F3560008F3560008F4
:10007000F3560008F3560008F3560008F35600083C
:10008000F3560008F3560008F3560008F35600082C
:10009000F3560008F3560008F35600080D52000806
:1000A000F3560008F3560008F3560008F35600080C
:1000B000BD4E0008E9140008A54E0008F3560008DC
:1000C000F3560008F3560008F3560008F3560008EC
:1000D000F356000863060008F3560008854B000835
:1000E000F3560008F3560008F356000800F002F833
:1000F00000F062F80AA090E8000C82448344AAF160
:100100000107DA4501D100F057F8AFF2090EBAE85D
:100110000F0013F0010F18BFFB1A43F0010318473B
:10012000C8A80000E8A800000A444FF0000C10F82E
:10013000013B13F0070408BF10F8014B1D1108BF65
:1001400010F8015B641E05D010F8016B641E01F805
:10015000016BF9D113F0080F1EBF10F8014BAD1C55
:100160000C1B09D16D1E58BF01F801CBFAD505E073
:1001700014F8016B01F8016B6D1EF9D59142D6D3CD
:10018000704700000023002400250026103A28BFF5
:1001900078C1FBD8520728BF30C148BF0B607047F9
:1001A000642907F0A180782907F0DA8000207047E1
:1001B0001FB51FBD10B510BD07F04CFB1146FFF772
:1001C000F7FF00F009F807F06AFB03B4FFF7F2FF4E
:1001D00003BC00F0F9F9000000F088FA00F0B8FA6A
:1001E00000F04AF94FF4E13000F0FDF9642000F02E
:1001F00080F94FF4E13004F057FC00F0A7F904F067
:1002000095FD41F61F4141F2883001F04FF904F0AD
:10021000DAFD01F01CF800F0A1FB01F0FCF903F09D
:1002200029FC05F0E3F9002141F61F4005F0E6F84E
:100230004FF47A7000F05DF94FF47A7000F059F9DC
:1002400005F030F904F04EFE01F092F805A10A48DD
:1002500004F029FD04E001F0A5F8322000F049F98E
:10026000F9E70000C0B6D1C0B4AEBFDAB3F5CABC7E
:10027000BBAFB3C9B9A6000000480040704700BF3B
:10028000FEE700BFFEE700BFFEE700BFFEE77047E6
:1002900070477047704700000CB500200190009037
:1002A0006C48006840F480306A49086000BF6948C3
:1002B000006800F4003000900198401C0190009804
:1002C00018B90198B0F5A06FF1D16248006800F448
:1002D000003010B10120009001E000200090009853
:1002E000012843D15C48006840F010005A4908607A
:1002F0000846006820F0030008600846006840F0E7
:100300000200086053484068524948600846406807
:1003100048600846406840F480604860084640688D
:1003200020F47C1048600846406840F4E8104860BB
:100330000846006840F08070086000BF45480068CB
:1003400000F000700028F9D04248406820F0030017
:10035000404948600846406840F00200486000BFDD
:100360003C48406800F00C000828F9D10CBD10B5DD
:10037000FFF792FF10BD10B53648006840F001004D
:1003800034490860084640683449084031494860AB
:1003900008460068324908402E490860084600684F
:1003A00020F4802008600846406820F4FE00486081
:1003B0004FF41F008860FFF7DAFF4FF00060294913
:1003C000086010BD10B5002100200022214B5B68A1
:1003D00003F00C0121B1042906D0082928D107E037
:1003E000214B224C236027E01F4B204C236023E04D
:1003F000184B5B6803F47010164B5B6803F4803293
:10040000022303EB904022B9194B4343174C23605E
:100410000DE0104B5B6803F4003323B1144B4343EE
:10042000124C236003E0104B4343104C236003E065
:100430000D4B0E4C236000BF00BF064B5B68C3F33F
:1004400003130C4CE15C094B1B68CB40074C236049
:1004500010BD000000100240002002400000FFF824
:10046000FFFFF6FE08ED00E000127A004C000020CD
:1004700000093D005000002010B56FF0040005F0A9
:100480009AF92E4800682E49B0FBF1F02D4908700A
:100490000846007800EB4001C1EBC0104FF6FF7139
:1004A00001EAC0002849088010BD0146254A12789B
:1004B0004A434FF0E0235A6100229A611A461269BA
:1004C00042F001021A6100BF4FF0E022106900F013
:1004D00001021AB100F48032002AF5D04FF0E02278
:1004E000126922F001024FF0E0231A6100229A61A2
:1004F00070470146144A12884A434FF0E0235A617C
:1005000000229A611A46126942F001021A6100BF84
:100510004FF0E022106900F001021AB100F48032BD
:10052000002AF5D04FF0E022126922F001024FF0CC
:10053000E0231A6100229A61704700004C000020FD
:1005400000127A00600000206200002008B54FF41D
:10055000A06005F0E1F81D208DF8000001208DF865
:1005600001008DF802008DF80300684605F0D9F807
:1005700008208DF8000001208DF8010002208DF880
:10058000020001208DF80300684605F0CAF8252016
:100590008DF8000002208DF801008DF80200012086
:1005A0008DF80300684605F0BCF827208DF80000A0
:1005B00002208DF801008DF8020001208DF8030063
:1005C000684605F0AEF808BD014600BF704700BFA1
:1005D000424A128802F04002002AF9D0C2B23F4BD0
:1005E0001B1D1A80704710B586B00446012144F2E5
:1005F000050005F0A9FC4FF40070ADF814000320CD
:100600008DF8160018208DF8170005A9344805F05C
:10061000DFF94FF48060ADF8140004208DF8170066
:1006200005A92F4805F0D4F901940020ADF8080081
:10063000ADF80A00ADF80C00ADF810000C20ADF8D4
:100640000E0001A9254806F034FC012240F2255194
:10065000224806F0C6FC0121204806F0B6FC06B090
:1006600010BD10B540F225511C4806F09FFD10B397
:100670001A4806F01BFDC4B21A48007800F080004A
:10068000C8B91848007800F0400060B10A2C03D0C7
:1006900000201449087020E01248007840F08000E3
:1006A0001049087019E00D2C06D10E48007840F072
:1006B00040000C49087010E00A48007800F03F0044
:1006C00009490C5407480078401C06490870084640
:1006D00000783F2801DD0020087010BD003801407F
:1006E00000080140680000208C08002008B50121A6
:1006F000102005F029FC4FF40040ADF80000102058
:100700008DF8030003208DF8020069460C4805F0BF
:100710005FF908BD18B900210A4A11600FE00A49C3
:100720000968491C084A1160814208D105490968D5
:10073000C943064AC2F8BC110021034A1160704740
:1007400000100140BC0122426C0000200000224247
:1007500008B50121102005F0F7FB4FF48040ADF8FB
:10076000000048208DF803006946024805F030F982
:1007700008BD00000010014010B51021F84805F038
:10078000D4F92021F64805F0D0F92021F44805F0ED
:10079000CEF91021F24805F0CAF910BD10B51021AC
:1007A000EF4805F0C2F92021ED4805F0C0F92021FD
:1007B000EB4805F0BAF910BD10B51021E84805F076
:1007C000B4F91021E64805F0B2F910BD2DE9F04169
:1007D00005462C461021E24805F0A9F9002619E04B
:1007E000274607F08007802F04D12021DC4805F040
:1007F0009CF903E02021DA4805F099F96006040E1F
:100800001021D74805F091F91021D54805F08FF94E
:10081000701CC6B2082EE3DBBDE8F08110B50446BB
:10082000FFF7AAFF7820FFF7D1FFFFF7C5FF0020F1
:10083000FFF7CCFFFFF7C0FF2046FFF7C7FFFFF72A
:10084000BBFFFFF7ABFF10BD10B50446FFF794FFE9
:100850007820FFF7BBFFFFF7AFFF4020FFF7B6FFA1
:10086000FFF7AAFF2046FFF7B1FFFFF7A5FFFFF74D
:1008700095FF10BD70B504460D461DB1E0B2FFF7FF
:10088000E3FF02E0E0B2FFF7C9FF70BD70B50646B6
:10089000002418E004F1B0000021FFF7EBFF002175
:1008A0000846FFF7E7FF00211020FFF7E3FF0025D0
:1008B00005E001213046FFF7DDFF681CC5B2802D41
:1008C000F7DB601CC4B2082CE4DB70BD06E041F627
:1008D000650100E0491E0029FCD1401E0028F6D128
:1008E0007047014605E0002001E0421CD0B27B28A1
:1008F000FBDB0A1EA1F10101F5D1704770B504467A
:100900000D4605F1B0000021FFF7B4FF102141EAC8
:1009100014100021FFF7AEFF04F00F000021FFF7D5
:10092000A9FF70BD10B500218D20FFF7A3FF0021A6
:100930001420FFF79FFF0021AF20FFF79BFF10BDA2
:1009400010B500218D20FFF795FF00211020FFF743
:1009500091FF0021AE20FFF78DFF10BD70B5002480
:1009600018E004F1B0000021FFF784FF00210846E1
:10097000FFF780FF00211020FFF77CFF002505E036
:1009800001210020FFF776FF681CC5B2802DF7DB40
:10099000601CC4B2082CE4DB70BD70B5002418E004
:1009A00004F1B0000021FFF765FF00210846FFF7C2
:1009B00061FF00211020FFF75DFF002505E0012108
:1009C0000846FFF757FF681CC5B2802DF7DB601C97
:1009D000C4B2082CE4DB70BD2DE9F04707460E4693
:1009E0009046994600250024A8F12000C5B27F2F2B
:1009F00002DD0027B01CC6B2B9F1100F24D1314678
:100A00003846FFF77BFF002408E004EB0511554A48
:100A1000505C0121FFF72EFF601CC4B2082CF4DBF0
:100A2000701CC1B23846FFF769FF002409E004EBEF
:100A3000051108314B4A505C0121FFF71BFF601C78
:100A4000C4B2082CF3DB12E031463846FFF756FFFC
:100A500000240AE005EB4501434A02EB4101085D31
:100A60000121FFF707FF601CC4B2062CF2DBBDE8D2
:100A7000F08710B50246012000E050430B1EA1F1A3
:100A80000104E1B2F9D110BD2DE9FF5F074691469F
:100A90001E460E9D4FF0000A002435E0301B401E1C
:100AA000C1B20A20FFF7E5FFB9FBF0F00A21B0FB65
:100AB000F1F201FB1208BAF1000F14D1701EA0422E
:100AC00011DDB8F1000F0CD1AB4605EBDB7149101D
:100AD00001FB0471C8B22B4620220199FFF77CFF6D
:100AE00010E04FF0010AAB4605EBDB71491001FB4A
:100AF0000471C8B208F13001CAB22B460199FFF760
:100B00006BFF00BF601CC4B2B442C7DBBDE8FF9FEF
:100B10002DE9F04105460E4614461F460EE02278A8
:100B20003B4631462846FFF757FF05F10800C5B29E
:100B3000782D02DD0025B01CC6B2641C2078002888
:100B4000EDD1BDE8F0812DE9F04180460E46154615
:100B5000002731464046FFF7D1FE002411E0000097
:100B600000080140329600080A940008F74A02EB98
:100B70008511085D0121FFF77DFE781CC7B2601C5E
:100B8000C4B2102CF2DB701CC1B24046FFF7B6FEB7
:100B900000240CE06900491CEC4A02EB4111085D9D
:100BA0000121FFF767FE781CC7B2601CC4B2102C8D
:100BB000F0DBBDE8F0812DE9F05F06460F46904678
:100BC0001C46DDF828A04FF0000BE11704EB517133
:100BD000C910A4EBC10131B92046E11704EB5171F2
:100BE000C1F3C70506E02046E11704EB5171C910B7
:100BF000491CCDB23D4615E029463046FFF77EFE42
:100C0000B1460BE059460BF1010B1AF80100012126
:100C1000FFF730FE09F1010000F0FF09C145F1DBEB
:100C2000681CC5B2A542E7DBBDE8F09F2DE9FF5F78
:100C300086B014461D464FF0010A00200390049030
:100C400005904FF00109002600BF8346002213469D
:100C50002046294607F0ACFC09D285F00040CDE9DA
:100C600000402046019907F01BFC064604E02046A0
:100C7000294607F015FC0646304607F06EFC224672
:100C80002B46CDE9000107F0CDFD0746884600223E
:100C9000AF4B3846414607F0C7FCCDE9000107F0ED
:100CA0002FFC834607E009EB89004FEA40090AF16F
:100CB000010000F0FF0A0A2096FBF0F090FBF9F02B
:100CC0000028F0D142F2107096FBF0F00A2190FB60
:100CD000F1F201FB1200C0B28DF80C004FF47A70F3
:100CE00096FBF0F090FBF1F201FB1200C0B28DF820
:100CF0000D00642096FBF0F090FBF1F201FB120076
:100D0000C0B28DF80E000A2096FBF0F090FBF1F2D5
:100D100001FB1200C0B28DF80F000A2096FBF0F123
:100D200000FB1160C0B28DF810002E208DF811006C
:100D30004FF47A70BBFBF0F00A21B0FBF1F201FB3B
:100D400012008DF812006420BBFBF0F0B0FBF1F252
:100D500001FB12008DF813000A20BBFBF0F0B0FB82
:100D6000F1F201FB12008DF814000A20BBFBF0F138
:100D700000FB11B08DF8150000211498801D03AA06
:100D80001154894608E003A810F80900303003A97F
:100D900001F8090009F10109B9F10A0FF3DB00229A
:100DA00013462046294607F003FC08D20AF1010049
:100DB00000F0FF0A2D20CAF1050103AA50542E208D
:100DC0008DF8110000211498801D03AA1154CAF156
:100DD000050003A942180C23DDE90610FFF798FE71
:100DE0000AB0BDE8F09F2DE9F04F89B082468946F0
:100DF00017469846DDF84CB001200790002004907B
:100E0000059006900124002500BF00264FEAC96026
:100E10004FEA10693846414607F042FB054628462E
:100E200007F0B2FB3A464346CDE9000107F0FAFC71
:100E3000CDE902010022464BDDE9020107F0F4FB97
:100E4000CDE9000107F05CFB064606E004EB8400F8
:100E500044000798401CC0B207900A20B5FBF0F090
:100E6000B0FBF4F00028F1D142F21070B5FBF0F0C5
:100E70000A21B0FBF1F201FB12008DF810004FF4D3
:100E80007A70B5FBF0F0B0FBF1F201FB12008DF8C7
:100E900011006420B5FBF0F0B0FBF1F201FB120091
:100EA0008DF812000A20B5FBF0F0B0FBF1F201FB67
:100EB00012008DF813002E208DF815004FF47A7073
:100EC000B6FBF0F0B0FBF1F201FB12008DF816005A
:100ED0006420B6FBF0F0B0FBF1F201FB12008DF8DC
:100EE00017000A20B6FBF0F0B0FBF1F201FB120094
:100EF0008DF818000A20B6FBF0F100FB11608DF8A8
:100F0000190000210BF1060004AA1154002405E089
:100F100004A8005D303004A90855641C0A2CF7DBD6
:100F20002E208DF8150000210BF1060004AA1154A3
:100F30001298C0F1050004A942180C2351464846F6
:100F4000FFF7E6FD09B0BDE8F08F0000700000205B
:100F50000088C3402DE9F04105460F46164600BF04
:100F600005EB45014906080E3946FFF7C7FC00248A
:100F70000BE006F1100101EB4101FA4A02EB4101DD
:100F8000085D0121FFF776FC641C062CF1DBBDE84F
:100F9000F0812DE9F04105460F46164600BF05EBEE
:100FA00045014906080E3946FFF7A8FC002409E070
:100FB00006EB4601EB4A02EB4101085D0121FFF718
:100FC00059FC641C062CF3DBBDE8F0812DE9F047E9
:100FD0000546894616463446002C22DA64426420CF
:100FE00094FBF0F100FB11400A2190FBF1F0C7B235
:100FF0000A2094FBF0F100FB114000F0FF080D22E5
:1010000049462846FFF7C5FF691CC8B23A4649461B
:10101000FFF7A0FFA91CC8B242464946FFF79AFF56
:1010200020E0642094FBF0F100FB11400A2190FBCA
:10103000F1F0C7B20A2094FBF0F100FB114000F080
:10104000FF080B2249462846FFF7A3FF691CC8B2D8
:101050003A464946FFF77EFFA91CC8B242464946B8
:10106000FFF778FFBDE8F0872DE9F04705468A468F
:1010700016463446002C2DDA64420D22514628468D
:10108000FFF787FF0A2094FBF0F100FB1140C7B285
:101090000A2094FBF0F00A2190FBF1F201FB120010
:1010A00000F0FF08642094FBF0F000F0FF09E91C59
:1010B000C8B23A465146FFF74DFFA91CC8B2424696
:1010C0005146FFF747FF691CC8B24A465146FFF731
:1010D00041FF2BE00B2251462846FFF75AFF0A201A
:1010E00094FBF0F100FB1140C7B20A2094FBF0F032
:1010F0000A2190FBF1F201FB120000F0FF086420CE
:1011000094FBF0F000F0FF09E91CC8B23A465146E2
:10111000FFF720FFA91CC8B242465146FFF71AFF4D
:10112000691CC8B24A465146FFF714FFBDE8F08774
:101130002DE9F05F05468B4616463446002C00DA52
:1011400064424FF47A7094FBF0F0C7B24FF47A70B7
:1011500094FBF0F100FB1140642190FBF1F000F0F2
:10116000FF08642094FBF0F100FB11400A2190FB82
:10117000F1F000F0FF090A2094FBF0F100FB1140B0
:1011800000F0FF0A3A4659462846FFF7E3FE691C7D
:10119000C8B242465946FFF7DDFEA91CC8B24A460E
:1011A0005946FFF7D7FEE91CC8B252465946FFF729
:1011B000D1FEBDE8F09F2DE9F05F05460E461446CE
:1011C00042F21070B4FBF0F0C7B242F21070B4FB00
:1011D000F0F100FB11404FF47A71B0FBF1F000F038
:1011E000FF080846B4FBF0F100FB11406421B0FB9E
:1011F000F1F000F0FF096420B4FBF0F100FB1140B6
:101200000A21B0FBF1FA0A20B4FBF0F100FB114B0C
:101210003A4631462846FFF79DFE691CC8B2424651
:101220003146FFF797FEA91CC8B24A463146FFF780
:1012300091FEE91CC8B252463146FFF78BFE291DCC
:10124000C8B25A463146FFF785FEBDE8F09F08B5A3
:101250000121052004F078FE0121434804F089FCB7
:101260003020ADF8000010208DF8030003208DF829
:10127000020069463D4804F0ABFB30213B4804F0D6
:1012800054FC4FF44870FFF734F90021AE20FFF70B
:10129000F1FA00210846FFF7EDFA00211020FFF7D0
:1012A000E9FA00214020FFF7E5FA0021B020FFF71E
:1012B000E1FA00218120FFF7DDFA0021FF20FFF78E
:1012C000D9FA0021A120FFF7D5FA0021A620FFF7C7
:1012D000D1FA0021A820FFF7CDFA00213F20FFF727
:1012E000C9FA0021C820FFF7C5FA0021D320FFF773
:1012F000C1FA00210846FFF7BDFA0021D520FFF70B
:10130000B9FA00218020FFF7B5FA0021D820FFF7B5
:10131000B1FA00210520FFF7ADFA0021D920FFF72F
:10132000A9FA0021F120FFF7A5FA0021DA20FFF742
:10133000A1FA00211220FFF79DFA0021DB20FFF720
:1013400099FA00213020FFF795FA00218D20FFF750
:1013500091FA00211420FFF78DFA0021AF20FFF74A
:1013600089FA08BD0A940008000230000008014014
:1013700010B50C233EA200210846FFF7C9FB0C2341
:101380003DA204210020FFF7C3FB0C233DA2062150
:101390000120FFF7BDFB0C233BA206213C20FFF7F9
:1013A000B7FB10BDF8B500213848006807F00EFE05
:1013B00016D20C2336A200213020FFF7A9FB3348B8
:1013C000006880F00044204607F008FC0546032032
:1013D0002A460B46382100900020FFF727FC12E038
:1013E0000C232CA200213020FFF792FB2748006835
:1013F00007F0F4FB0446032022460B4638210090F8
:101400000020FFF713FC2448062102680420FFF7A0
:10141000DDFD2248062102680E20FFF7D7FD204897
:10142000006807F0DBFB0446032022460B464621FA
:1014300000900420FFF7FAFB1A48006807F0CEFB83
:101440000446012022460B463C2100900220FFF773
:10145000EDFB1548006807F0C1FB04460120224659
:101460000B46002100900220FFF7E0FBF8BD0000D2
:10147000414E474C453A000044697374616E6365A0
:101480003A000000523A20004C3A20000C000020A4
:101490002D0000002B0000002C0000202800002060
:1014A00024000020400800203C0800203EB50546EE
:1014B0000C460121022004F054FDADF80450ADF8B3
:1014C00000400020ADF80600ADF8020069460C4867
:1014D00004F072FE01224121094805F0E4F90121DE
:1014E000074805F0C5F93EBD10B50121044805F0D7
:1014F00088FC18B10121024805F094FC10BD0000E1
:101500000004004070B505460C4600F0C7F9D02035
:1015100000F06EFA00F0FFF918B100F0DDF90120DB
:1015200070BD284600F064FA00F0F5F9204600F09E
:101530005FFA00F0F0F918B100F0CEF90120EFE702
:1015400000F0CAF90020EBE770B504460025BC2C7A
:1015500001DB012510E0622C01DB02250CE02A2CC6
:1015600001DB032508E0142C01DB042504E00A2C30
:1015700001DB052500E0062529461A20FFF7C2FFFA
:1015800070BD70B50446B4F57A7F01DD4FF47A740E
:10159000042C00DA04244FF47A7090FBF4F0401E1F
:1015A000C5B229461920FFF7ADFF0546264604EBD4
:1015B000D671C1F34F00FFF7C7FF70BD70B5044689
:1015C00000F06CF9D02000F013FA00F0A4F92046E6
:1015D00000F00EFA00F09FF900F060F9D12000F061
:1015E00007FA00F098F9002000F02BFA054600F009
:1015F00073F9284670BD10B50446E006010E1C20A4
:10160000FFF780FF10BD10B50446E006010E1B2059
:10161000FFF778FF10BD10B500F02DF980216B2089
:10162000FFF770FF6420FEF764FF00216B20FFF7D7
:1016300069FF0320FFF7E7FF0020FFF7DCFFC8206A
:10164000FFF79FFF00213820FFF75CFF00216A2091
:10165000FFF758FF00212320FFF754FF8021372098
:10166000FFF750FF7520FFF7A9FF0446682C0BD148
:1016700001216B20FFF746FF00216C20FFF742FF9E
:10168000C820FFF77EFF01E0012010BD0020FCE72D
:101690002DE9F04106460F4614461D4600F0FEF8BF
:1016A000002141EA4601C8B200F0A2F900F033F986
:1016B00020B100F011F90120BDE8F081384600F0BA
:1016C00097F900F028F900F0E9F8012101EB460153
:1016D000C8B200F08DF900F01EF90DE0012C04D124
:1016E000002000F0AEF9287003E0012000F0A9F915
:1016F0002870601EC4B26D1C002CEFD100F0ECF815
:101700000020D9E72DE9F84F6B46022241216820DD
:10171000FFF7BEFF9DF801009DF8001040EA012090
:101720000FFA80FA504606F018FF804600224B4B15
:1017300006F05EFD06464A4A4A4B06F09DFC04460A
:1017400006F068FC83464849584607F073FC044697
:1017500007F0D4FB00B2BDE8F88F2DE9FC41044648
:101760000D4616466B46062243216820FFF790FF80
:101770000746BFB99DF801009DF8001040EA01201E
:1017800000B220809DF803009DF8021040EA01207D
:1017900000B228809DF805009DF8041040EA012061
:1017A00000B230803846BDE8FC812DE9FC4104469A
:1017B0000D4616466B4606223B216820FFF768FF60
:1017C0000746BFB99DF801009DF8001040EA0120CE
:1017D00000B220809DF803009DF8021040EA01202D
:1017E00000B228809DF805009DF8041040EA012011
:1017F00000B230803846BDE8FC812DE9F041054655
:101800000E461746984600F049F8002141EA450186
:10181000C8B200F0EDF800F07EF820B100F05CF8FE
:101820000120BDE8F081304600F0E2F800F073F8E6
:1018300000240CE018F8040000F0DAF800F06BF86F
:1018400018B100F049F80120EBE7601CC4B2BC42BB
:10185000F0DB00F041F80020E3E7000000407540B5
:10186000A4703D0AD74342400000C84210B5022090
:10187000FEF71BFE10BD08B50121082004F064FB33
:101880001820ADF8000010208DF8030003208DF81B
:1018900002006946834804F09BF808BD10B58148F2
:1018A000006820F470407F4908600846006840F4F2
:1018B0004050086001207C4908607C49C1F89001D3
:1018C000FFF7D4FF002078490860FFF7CFFF002022
:1018D0007649C1F8900110BD10B57248006820F437
:1018E0007040704908600846006840F44050086045
:1018F00000206D49091D08606C49C1F88C01FFF793
:10190000B5FF01206849091D08606849C1F88C01CC
:10191000FFF7ACFF10BD10B500246248006820F44A
:101920007040604908600846006840F40040086064
:1019300001205D490860FFF799FF01205B49C1F86C
:101940009001FFF793FF07E0601CC4B2FA2C03DD9F
:10195000FFF7C2FF012010BD5348803800680028FF
:10196000F2D15149091D086000BFF4E710B500200D
:101970004D49091D08604B48006820F470404949F2
:1019800008600846006840F440500860002047495D
:10199000C1F88C01FFF76AFF01204349091D086067
:1019A000FFF764FF00204149C1F8900110BD10B558
:1019B00000203D49091D08603A48006820F4704045
:1019C000384908600846006840F44050086001202B
:1019D0003649C1F88C01FFF749FF01203249091D42
:1019E0000860FFF743FF00203049C1F8900110BDA7
:1019F00070B504462B48006820F4704029490860FF
:101A00000846006840F44050086000202649091D3F
:101A10000860002512E0E009234908606006040E12
:101A200001202249C1F89001FFF720FF00201E4944
:101A3000091D0860FFF71AFF681CC5B2082DEADB14
:101A400070BD70B5054600241648006820F470404B
:101A5000144908600846006840F400400860002609
:101A600015E000201049091D0860FFF7FFFE012066
:101A70000E49C1F890016006040E0B4880380068DA
:101A800008B1601CC4B2FFF7F1FE701CC6B2082E8C
:101A9000E7DB15B9FFF78BFF01E0FFF767FF204693
:101AA00070BD0000000C01408C8121420080214269
:101AB00038B50446F74890F82400C0B114B10220AC
:101AC000009001E000200090F24A1268D17BF14AB8
:101AD000526810786B460122FFF78FFE10B14FF06D
:101AE000FF3038BD9DF80010EA48417423E0E94812
:101AF000807A10B94FF0FF30F3E724B1E548407C1D
:101B000008B10020EDE714B10120009001E00020B1
:101B10000090E04A1268D17BDE4A526810786B462A
:101B20000122FFF76AFE10B14FF0FF30D9E79DF8B0
:101B30000010D84841740020D3E738B500241FE0D6
:101B4000D4480068C07AA04204D0D2480068407DE2
:101B5000A04200D112E0CF49496808786B460122C3
:101B60002146FFF795FD10B14FF0FF3038BD9DF8CD
:101B700000202146C8A005F083FB00BF601CC4B252
:101B8000C44840680079A042DADC0020EEE770B576
:101B900004460D46BF480068C07AA04204D0BD4844
:101BA0000068407DA04202D14FF0FF3070BDB948BF
:101BB00040680079A04202DC4FF0FF30F6E7B549FB
:101BC000496808782B4601222146FFF761FDEDE7C1
:101BD00038B50446AF4890F82300A04201D1002058
:101BE00038BD14B13020009001E000200090A948D9
:101BF000807C20B19DF8000040F002000090A548D4
:101C000090F8220020B19DF8000040F08000009084
:101C1000A04A1268117D9F4A526810786B460122D3
:101C2000FFF7EBFD10B14FF0FF30D9E7994880F88E
:101C300023400020D4E738B5044604F0700010B10A
:101C40000120009005E014B10020009001E0402048
:101C50000090904A1268917C8E4A526810786B46C8
:101C60000122FFF7CAFD20B100218A488172481E77
:101C700038BD9DF8000020F0400186480173002027
:101C8000009004F0400020B99DF8000040F00400EE
:101C9000009004F0200020B99DF8000040F0020000
:101CA000009004F0100020B99DF8000040F0010001
:101CB000009004F0080020B99DF8000040F03800C2
:101CC0000090744A1268D17C724A526810786B4650
:101CD0000122FFF792FD20B100216E488172481E5B
:101CE000C6E724B1082C02D00020FFF771FF694835
:101CF0008472002101753220FEF7FBFB0020B7E75C
:101D000038B504466348807CA04201D1002038BD2C
:101D1000002C46D05F4A126811795E4A52681078EA
:101D20006B460122FFF7B4FC10B14FF0FF30EEE735
:101D30009DF8000020F020000090564A12681179AA
:101D4000544A526810786B460122FFF756FD10B1D5
:101D50004FF0FF30DBE70320FEF7CBFB02200090C3
:101D60004C4890F8220020B19DF8000040F080001F
:101D70000090484890F8230020B19DF8000040F002
:101D800030000090434A1268117D424A5268107830
:101D90006B460122FFF731FD002851D04FF0FF3094
:101DA000B5E73C4A126811793A4A526810786B4696
:101DB0000122FFF76DFC10B14FF0FF30A7E7354867
:101DC000807A00F0010028B19DF8000040F020006A
:101DD000009004E09DF8000020F0200000902D4AC3
:101DE000126811792B4A526810786B460122FFF76E
:101DF00004FD10B14FF0FF3089E70320FEF779FBB7
:101E0000244890F8220010B18020009001E00020CA
:101E10000090204890F8230020B19DF8000040F089
:101E2000300000901B4A1268117D1A4A52681078DF
:101E30006B460122FFF7E1FC10B14FF0FF3066E77F
:101E400014488474002062E708B51248807A10B9FB
:101E50004FF0FF3008BD002000900E4A1268D17B81
:101E60000C4A526810786B460122FFF7C6FC10B18D
:101E70004FF0FF30EEE7074A12685179054A526881
:101E800010786B460122FFF7B8FC68B14FF0FF30C5
:101E9000E0E70000F0070020252335783A202523CD
:101EA00035780D0A00000000F84A12681179F74AE7
:101EB000526810786B460122FFF79FFC10B14FF07B
:101EC000FF30C7E7F14890F82400002853D00C20D9
:101ED0000090EE4A12681179EC4A526810786B460D
:101EE0000122FFF78AFC10B14FF0FF30B2E7322039
:101EF000FEF7FFFAC0200090E448807A00F001006D
:101F000020B19DF8000040F020000090DF4A1268E8
:101F10001179DE4A526810786B460122FFF76DFC9A
:101F200010B14FF0FF3095E7D848407C10B1022047
:101F3000009001E000200090D44A1268D17BD34A7F
:101F4000526810786B460122FFF757FC10B14FF032
:101F5000FF307FE700200090CC4A12685179CB4ACD
:101F6000526810786B460122FFF747FC002855D0D5
:101F70004FF0FF306EE704200090C44A12681179D8
:101F8000C24A526810786B460122FFF736FC10B146
:101F90004FF0FF305EE7BD48807C20B9BB48807AB7
:101FA00000F0010010B94020009001E06020009096
:101FB000B64A12681179B54A526810786B46012208
:101FC000FFF71BFC10B14FF0FF3043E73220FEF764
:101FD00090FAAE48407C10B10120009001E0002052
:101FE0000090AA4A1268D17BA84A526810786B46C2
:101FF0000122FFF702FC10B14FF0FF302AE7A34A9D
:1020000012685179A14A52681078A04B103301220E
:10201000FFF7F3FB10B14FF0FF301BE7002019E78B
:1020200070B50446002624F00104984890F8240076
:1020300008B1002070BD9548807A10B94FF0FF308C
:10204000F8E79248057C807A204090490874084659
:10205000007CA04202D04FF0FF3600E0002614B909
:102060008A48007D18B10120FFF722FD02E0002020
:10207000FFF71EFD3CB1FFF7E7FE20B18348057472
:102080004FF0FF30D6E73046D4E738B504467F48F6
:10209000807A10B94FF0FF3038BDBC2C02DB012034
:1020A000009015E0622C02DB0220009010E02A2C48
:1020B00002DB032000900BE0142C02DB04200090D4
:1020C00006E00A2C02DB0520009001E006200090CB
:1020D0006E48C07A9DF80010884201D10020DBE7ED
:1020E0006A4A12689178694A526810786B460122F0
:1020F000FFF783FB10B14FF0FF30CDE79DF80010E4
:102100006248C1720020C7E738B50446282C02DDBA
:102110004FF0FF3038BDDCB90020FFF759FD00203B
:102120008DF8000007208DF80100584A1268917C54
:10213000564A526810786B460222FFF75EFB10B1D8
:102140004FF0FF30E6E70021504801750020E1E73D
:102150000120FFF73DFD20208DF80000012C06D165
:1021600000208DF801000520FFF78FFF17E0052CF8
:1021700006DC01208DF801000520FFF786FF0EE048
:10218000142C06DC02208DF801000A20FFF77DFFE9
:1021900005E003208DF801001420FFF776FF9DF87D
:1021A0000100072101EB8010C0B28DF80100374A11
:1021B0001268917C354A526810786B460222FFF70C
:1021C0001CFB10B14FF0FF30A4E708212F488172AB
:1021D00000210173012101750020FFF721FF00207C
:1021E00098E738B504462948807A10B94FF0FF3097
:1021F00038BD264890F8240010B14FF0FF30F7E7C3
:102200002248007D50B134B1282C04DCE0B2FFF745
:102210007BFF0020ECE70020FFF776FF042C01DABB
:10222000042404E0B4F57A7F01DD4FF47A744FF4AE
:102230007A7090FBF4F0401EC0B20090134A12680E
:102240005178124A526810786B460122FFF7D5FA8E
:1022500010B14FF0FF30CBE79DF80000401C4FF469
:102260007A7191FBF0F081B20848C1810146C989B9
:102270004810FFF70AFF0020BAE738B504460348C4
:10228000807A28B94FF0FF3038BD0000F0070020F9
:10229000022C06D0042C07D0082C08D0102C0CD10E
:1022A00008E0002000900BE00820009008E01020DB
:1022B000009005E01820009002E04FF0FF30E3E7C7
:1022C00000BFF948407A9DF80010B0EBE10F01D152
:1022D0000020D9E7F44A1268D179F34A526810789D
:1022E0006B460122FFF789FA10B14FF0FF30CBE7C0
:1022F0009DF80000C110EC4841720020C4E738B5D9
:102300000446E948807A10B94FF0FF3038BDFA2C06
:1023100009D0B4F5FA7F09D0B4F57A7F09D0B4F5C5
:10232000FA6F0CD108E0002000900BE0082000902C
:1023300008E01020009005E01820009002E04FF027
:10234000FF30E3E700BFD848007A9DF80010B0EBFB
:10235000E10F01D10020D9E7D34A12689179D24A1E
:10236000526810786B460122FFF747FA10B14FF020
:10237000FF30CBE79DF80000C010CB490872002069
:10238000C4E71CB580208DF80000C74A1268917C14
:10239000C54A526810786B460122FFF72EFA10B139
:1023A0004FF0FF301CBD6420FEF7A3F800208DF82D
:1023B0000000BD4A1268917CBB4A526810786B4697
:1023C0000122FFF71AFA10B14FF0FF30EAE7B64AE0
:1023D0001268917DB44A526810786B460622FFF766
:1023E00057F910B14FF0FF30DCE79DF80500C0074A
:1023F000400F9DF8031001F0010140EA41009DF8F3
:10240000011001F0010140EA010494B1012C03D153
:102410000121A548C17431E0022C03D10021A2485A
:10242000C1742BE02146A1A004F02AFF4FF0FF3039
:10243000B8E79D4A1268D1789B4A526810786B467B
:102440000122FFF725F910B14FF0FF30AAE79DF800
:10245000000000F00F042CB99E4804F011FF4FF06B
:10246000FF309FE7042C06D19BA004F009FF012157
:102470008D48C17402E000218B48C174FF218A4855
:102480008172FF2088490872FF2187484172C1721A
:102490004FF6FF71C181FF21017481740121017325
:1024A00080F82210002180F8231041750175163044
:1024B000016041608160163880F8241080F8251092
:1024C000C1844FF4FA60FFF71AFF10B14FF0FF30EC
:1024D00068E70220FFF7D1FE10B14FF0FF3061E74F
:1024E0002A20FFF7D2FD10B14FF0FF305AE732201B
:1024F000FFF777FE10B14FF0FF3053E70020FFF7F2
:102500008FFD10B14FF0FF304CE70020FFF7F8FBD4
:1025100010B14FF0FF3045E70020FFF78CFB0020A3
:1025200040E770477CB504460D465F48807A00F06E
:10253000700010B94FF0FF307CBD5B4A1268117B10
:10254000594A526810786B460622FFF7A1F810B17D
:102550004FF0FF30F0E79DF801009DF8001040EAD1
:10256000012000B220809DF803009DF8021040EA8F
:10257000012000B260809DF805009DF8041040EA3B
:10258000012000B2A08015B12846FFF7CAFF002045
:10259000D2E77CB504460D464348807A00F0080037
:1025A00010B94FF0FF307CBD3F4A1268517B3E4A64
:1025B000526810786B460622FFF76AF810B14FF0A8
:1025C000FF30F0E79DF801009DF8001040EA01207F
:1025D00000B220809DF803009DF8021040EA01201F
:1025E00000B260809DF805009DF8041040EA0120CB
:1025F00000B2A08015B12846FFF793FF0020D2E774
:102600002DE9FE4F05460C462748807A18B94FF051
:10261000FF30BDE8FE8F244A1268917B224A52683F
:10262000107802AB0222FFF733F810B14FF0FF3001
:10263000EFE79DF809009DF8081040EA012006B276
:1026400014B12046FFF76DFF17494968C88806F0A6
:10265000A9FC154901904968B1F9080006F08AFC07
:102660008346304606F086FC5946009006F0E0FDB1
:102670008246019906F04CFB81461F4906F0DAFAC2
:1026800080464FF08F4106F0D5FC074606F036FC39
:1026900028600020BDE710B588B004461CB94FF093
:1026A000FF3008B010BD29E0F0070020556E7375AB
:1026B00070706F7274656420736F66747761726591
:1026C0002070726F64756374207265762025642EA5
:1026D0000A00000098A9000848616C662073656EC6
:1026E0007369746976697479207061727420666F99
:1026F000756E642E0A00000000000C42206830B99C
:10270000606820B9A06810B9002008B010BDFA496F
:102710004968087806AB03221146FEF7B9FF10B1ED
:102720004FF0FF30F1E79DF81800082101EB201071
:1027300000F00F00ADF800009DF8190001EB20102B
:1027400000F00F00ADF802009DF81A0001EB201018
:1027500000F00F00ADF8040020684100BDF9000052
:10276000403091FBF0F000B2ADF81000606841001D
:10277000BDF90200403091FBF0F000B2ADF812005C
:10278000A0684100BDF90400403091FBF0F000B2B8
:10279000ADF81400D8494968087806AB06221146FE
:1027A000FEF776FF10B14FF0FF30AEE79DF819004D
:1027B0009DF8181040EA012000B2ADF808009DF81D
:1027C0001B009DF81A1040EA012000B2ADF80A0083
:1027D0009DF81D009DF81C1040EA012000B2ADF8E4
:1027E0000C00BDF81000BDF80810084400B2ADF8A8
:1027F0001000BDF81200BDF80A10084400B2ADF890
:102800001200BDF81400BDF80C10084400B2ADF879
:102810001400BDF81000000A8DF81800BDF8100073
:10282000C0B28DF81900BDF81200000A8DF81A0028
:10283000BDF81200C0B28DF81B00BDF81400000AEC
:102840008DF81C00BDF81400C0B28DF81D00AA4917
:102850004968087806AB06221146FEF7CEFF10B194
:102860004FF0FF3051E700204FE70146A248007AC1
:1028700030B1012807D0022809D003280FD10AE07F
:10288000FA2008800EE04FF4FA7008800AE04FF456
:102890007A70088006E04FF4FA60088002E00020B9
:1028A000088000BF00BF0020704701469248407A70
:1028B00030B1012807D0022808D003280CD108E045
:1028C000022008700BE00420087008E0082008705F
:1028D00005E01020087002E04FF0FF30704700BFA5
:1028E0008548C07C18B108784006000E08700020AA
:1028F000F4E701468048C07A082817D2DFE800F0E4
:102900001704070A0D101318BC20088013E062207A
:10291000088010E02A2008800DE0142008800AE0DA
:102920000A20088007E00520088004E000BF00BFFF
:102930000020088000BF00BF0020704701466E489D
:1029400090F8240010B14FF0FF3070476A48C089FA
:1029500008800020F9E7014600200880401E7047EB
:1029600001464FF0FF30704701466348007A30B1AE
:10297000012807D0022808D003280CD108E05F48BE
:1029800008600BE05E48086008E05E48086005E00B
:102990005D48086002E04FF0FF30704700BF002044
:1029A000FBE701465448407A30B1012808D002289C
:1029B0000AD0032810D10BE04FF4804008800EE0CD
:1029C00041F69C7008800AE04FF48050088006E0D1
:1029D0004FF40060088002E04FF0FF30704700BF06
:1029E0004548C07C10B10888401008800020F5E7F9
:1029F00001464148007C08700020704701463E486F
:102A0000807A10B10120087001E0002008700020D9
:102A1000704738B504463848807A10B94FF0FF3017
:102A200038BD354A1268117C334A526810786B46BB
:102A30000222FEF72DFE10B14FF0FF30F0E79DF8B7
:102A400001009DF8001040EA012000B22080002023
:102A5000E6E72DE9FE4F0746884692461D46DDF81B
:102A600030B000260024244890F8240010B1601EE5
:102A7000BDE8FE8F002028701F48807A10B94FF003
:102A8000FF30F5E71C48007C10B94FF0FF30EFE74E
:102A90001948007C00F0400008B1B01CC6B21648CE
:102AA000007C00F0200008B1B01CC6B21248007CC7
:102AB00000F0100008B1B01CC6B20F48007C00F056
:102AC000080008B1B01DC6B20B4A1268917A0A4AD2
:102AD000526810786B460222FEF7DAFD10B14FF013
:102AE000FF30C5E79DF801009DF8001040EA01297C
:102AF000B1450BDA0020BBE7F007002000000343DC
:102B0000000083423333034233338341FC4840683F
:102B10004088B9EB600F17DDF94A1268517CF84A1A
:102B2000526810786B460122FEF7B2FD10B14FF0EB
:102B3000FF309DE79DF8000000F0100020B1FFF786
:102B400083F96FF0010093E75046FFF7EAFCEC4A87
:102B50001268D17AEA4A526810786B463246FEF71C
:102B600097FD10B14FF0FF3082E799FBF6F0401E61
:102B70008BF8000000202870B4422AD0E048007C86
:102B800000F0080028B3601C1DF800001DF80410B8
:102B900040EA012000B2A8F80000E01C1DF8001077
:102BA000A01C1DF8000041EA002000B2A8F80200B5
:102BB000601D1DF80010201D1DF8000041EA0020D6
:102BC00000B2A8F80400287840F008002870A01D82
:102BD00084B2B44213D0CA48007C00F0400070B107
:102BE000601C1DF800001DF8041040EA012000B22E
:102BF0003880287840F040002870A01C84B2B4428D
:102C000013D0BF48007C00F0200070B1601C1DF89C
:102C100000001DF8041040EA012000B278802878F6
:102C200040F020002870A01C84B2B44213D0B448F5
:102C3000007C00F0100070B1601C1DF800001DF851
:102C4000041040EA012000B2B880287840F010005B
:102C50002870A01C84B200200AE7F8B504460F468D
:102C60001646A74890F8240010B94FF0FF30F8BD81
:102C7000A348807A10B94FF0FF30F8E7A04A1268F5
:102C8000917A9F4A526810786B460222FEF700FD47
:102C900010B14FF0FF30EAE79DF801009DF80010F9
:102CA00040EA0125A54203DA00203070401EDEE72D
:102CB000934840684088B5EB600F17DD904A126872
:102CC000517C8F4A526810786B460122FEF7E0FC77
:102CD00010B14FF0FF30CAE79DF8000000F010007F
:102CE00020B1FFF7B1F86FF00100C0E7E2B2844B0A
:102CF0001B68D97A824B5B6818783B46FEF7C8FCA4
:102D000010B14FF0FF30B2E795FBF4F0401E307089
:102D10000020ACE701467A4880F822100020704776
:102D20007CB5054676494968087801AB04220D2137
:102D3000FEF7AEFC08B107207CBD9DF80700C0F38C
:102D400001109DF8041001F0E00140EAE1008DF867
:102D500000009DF80700C0F381009DF8051001F008
:102D6000E00140EAE1008DF801009DF8070000F065
:102D700003009DF8061001F0E00140EAE1008DF843
:102D8000020000241CE01DF8040018B9002045F8DA
:102D9000240013E05B4845F8240006E055F82400C1
:102DA000594906F047F945F824001DF80400401E73
:102DB000C0B20DF804000028F0D100BF601CC4B2FE
:102DC000032CE0DB0020B7E72DE9FE4F06460F4657
:102DD00000256846FFF7A4FF002442E056F82400CF
:102DE00057F82410A0EB010ABAF1000F01DB51469D
:102DF00001E0CAF10001084606F0BCF883464FF036
:102E00008F4105F085FF80465DF82400002106F023
:102E100041F816D05DF82410404605F079FF82464F
:102E20004FF07E5106F004FA814629F0004A3748F7
:102E3000416A504606F0CAF912D20120A04005436B
:102E40000EE03248C169404606F0C0F805D32F486D
:102E5000016A404606F0BAF902D20120A0400543BB
:102E6000641C032CBADB2846BDE8FE8F2DE9FC5F0D
:102E700006460F46002522494968087801AB03221F
:102E80000D21FEF705FC10B10720BDE8FC9F9DF861
:102E9000040000F01F008DF804009DF8050000F00C
:102EA0001F008DF805009DF8060000F01F008DF84A
:102EB0000600002462E056F8240057F82410A0EB26
:102EC000010BBBF1000F01DB594601E0CBF1000122
:102ED000084606F04FF84FF08F41009005F018FFBC
:102EE000814601A8005DC0B30849086806F05AF899
:102EF00083465946064805F00BFF80460FE0000068
:102F0000F00700207B14AE3E1D5A843F4C9C000805
:102F100000B04C45FE49404606F08CF8804601A8BA
:102F2000005D401EC0B201A908550028F2D14146FB
:102F3000484605F0EDFE83464FF07E5106F078F9E5
:102F400082462AF0004BF3488169584606F03EF964
:102F500013D20120A04005430FE0FFE7ED480169CF
:102F6000484606F033F805D3EA484169484606F07A
:102F70002DF902D20120A0400543641C032C9ADBEA
:102F8000284682E72DE9F04F87B005460C4691466A
:102F900001208DF8100000208DF81100DE4A126823
:102FA000917CDD4A5268107804AB0222FEF725FCC2
:102FB00020B14FF0FF3007B0BDE8F08FC820FDF71B
:102FC00098FA00208DF81000D34A1268D17BD24ABB
:102FD0005268107804AB0122FEF70FFC10B14FF0DD
:102FE000FF30E8E7CC4A12685179CB4A5268107832
:102FF00004AB0122FEF701FC10B14FF0FF30DAE71D
:10300000C54A1268917CC44A5268107804AB012208
:10301000FEF7F3FB10B14FF0FF30CCE7BE4A126869
:10302000D17DBD4A5268107804AB0122FEF7E5FB62
:1030300010B14FF0FF30BEE7B74A12681179B64AB7
:103040005268107804AB0122FEF7D7FB10B14FF0A5
:10305000FF30B0E70C208DF81000AF4A12681179EC
:10306000AD4A5268107804AB0122FEF7C6FB10B1DE
:103070004FF0FF309FE70F20FDF73BFAA648806A2C
:10308000407A8DF81000A44A12689178A24A5268DA
:10309000107804AB0122FEF7B0FB10B14FF0FF3007
:1030A00089E79D48806A007A8DF810009A4A126874
:1030B0005178994A5268107804AB0122FEF79DFBC3
:1030C00010B14FF0FF3076E7B9F1000F07D092480A
:1030D000806A807A40F0E0008DF8100004E08E48AD
:1030E000806A807A8DF810008B4A126891798A4A3A
:1030F0005268107804AB0122FEF77FFB10B14FF04D
:10310000FF3058E7B9F1000F07D08348806AC07AD2
:1031100040F0E0008DF8100003E07E48C07A8DF8A2
:1031200010007D4A1268D1797B4A5268107804AB4E
:103130000122FEF762FB10B14FF0FF303BE7B9F11F
:10314000000F02D0C820FDF7D4F940208DF8100000
:10315000714A12681179704A5268107804AB0122E2
:10316000FEF74BFB10B14FF0FF3024E778208DF8CD
:103170001000694A12685179674A5268107804ABA6
:103180000122FEF73AFB10B14FF0FF3013E761491F
:103190008889FDF7AEF900208DF810005E4A1268AC
:1031A00051795D4A5268107804AB0122FEF725FB85
:1031B00010B14FF0FF30FEE6574A1268917A564A36
:1031C0005268107804AB0222FEF762FA10B14FF099
:1031D000FF30F0E69DF811009DF8101040EA012B39
:1031E0000C209BFBF0F0C6B20020A860686028604D
:1031F000A06060602060824665E0474A1268D17A2C
:10320000454A5268107804AB0C22FEF741FA10B11F
:103210004FF0FF30CFE69DF811009DF8101040EA06
:10322000012000B2ADF808009DF813009DF81210BF
:1032300040EA012000B2ADF80A009DF815009DF8A3
:10324000141040EA012000B2ADF80C00BDF90810DE
:10325000206808442060BDF90A1060680844606076
:10326000BDF90C10A0680844A0609DF817009DF8F7
:10327000161040EA012000B2ADF800009DF81900D8
:103280009DF8181040EA012000B2ADF802009DF848
:103290001B009DF81A1040EA012000B2ADF80400AE
:1032A000BDF90010286808442860BDF9021068685C
:1032B00008446860BDF90410A8680844A8600AF1D1
:1032C000010000F0FF0AB24597DB1248D0F800C0B9
:1032D0002868C117090441EA104107046246002327
:1032E000384603F0A8FF32460023CDE9020103F07F
:1032F000A2FF28600748D0F800C06868C117090419
:1033000041EA1041070462460023384606E0000007
:1033100054E3853F4C9C0008F007002003F08BFF2E
:1033200032460023CDE9020103F085FF6860FE48C4
:10333000D0F800C0A868C117090441EA1041070489
:1033400062460023384603F076FF32460023CDE97B
:10335000020103F070FFA860F348D0F804C02168B0
:10336000C817000440EA11480F046246002338469B
:10337000414603F060FF32460023CDE9020103F02D
:103380005AFF2060E848D0F804C06068C1170904FB
:1033900041EA1041070462460023384603F04BFF20
:1033A00032460023CDE9020103F045FF6060DE48AC
:1033B000D0F804C0A068C117090441EA104107040D
:1033C00062460023384603F036FF32460023CDE93B
:1033D000020103F030FFA060A068002804DDA068AF
:1033E000A0F58030A06003E0A06800F58030A06008
:1033F0000020E0E538B50446CC4890F82400A0420F
:1034000001D1002038BD24B3C84890F8250010B978
:103410004FF0FF30F6E70020FEF74AFB0020FEF7F2
:103420006FFCC249C88CFEF7DCFE00200090BF494B
:10343000496808786B4601222321FEF7DEF9012155
:10344000BA4880F824100120FEF732FBFEF7FCFC9E
:1034500013E00020FEF72CFBB448007C0090B34939
:10346000496808786B4601222321FEF7C6F900213E
:10347000AE4880F82410FEF7E7FC0020C2E72DE9F3
:10348000F04F8DB083460F4602200C90A74890F86D
:10349000240020B10020FFF7ADFF012600E0002648
:1034A00003A8FFF7E2F905A8FFF7FFF901A8FFF766
:1034B00020FA02A8FFF742FA9C4890F80AA004A854
:1034C000FFF796FA002407E0002239465846FFF736
:1034D00059FD00B902E0641C022CF5DB00BF022C90
:1034E00001D1002528E0002407E0012206A909A84F
:1034F000FFF748FD00B902E0641C022CF5DB00BFB9
:10350000022C01D1002517E006A93846FFF75CFC24
:1035100000F0FF0809A95846FFF7A8FC00F0FF09D2
:103520000025B9F1000F01D145F00105B8F1000FF8
:1035300001D145F0020500BFFF207C490872FF2140
:103540007A484172C1724FF6FF71C181FF218172C9
:10355000017401210173BDF80C00FEF7D0FE9DF847
:103560001400FEF78AFEBDF80400FEF78EFDBDF8DC
:103570000800FEF736FE5046FEF75DFB9DF8100092
:10358000FEF74EFD16B10120FFF734FF28460DB0BF
:10359000BDE8F08FF8B504460D46164616B94FF053
:1035A000FF30F8BD6148807A10B94FF0FF30F8E77E
:1035B00020128DF80000E0B28DF801009DF80100A6
:1035C00028445A4949684989884202DD4FF0FF3052
:1035D000E7E7564A1268117E544A526810786B46E3
:1035E0000222FEF70AF910B14FF0FF30D9E7EAB234
:1035F0004E4B1B68597D4D4B5B6818783346FEF780
:10360000FCF810B14FF0FF30CBE70020C9E7F8B568
:1036100004460D46164616B94FF0FF30F8BD434834
:10362000807A10B94FF0FF30F8E720128DF80000D3
:10363000E0B28DF801009DF8010028443B4949683B
:103640004989884202DD4FF0FF30E7E7374A1268C8
:10365000117E364A526810786B460222FEF7CDF88A
:1036600010B14FF0FF30D9E7EAB2304B1B68597DFB
:103670002E4B5B6818783346FEF70AF810B14FF00E
:10368000FF30CBE70020C9E72DE9F04385B00546C0
:103690000E4690469946254890F8250020B14FF0F7
:1036A000FF3005B0BDE8F08316B94FF0FF30F8E702
:1036B000002423E0281B102801DD102000E0281B37
:1036C00087B2321939462046FFF764FF10B14FF038
:1036D000FF30E6E701AA39462046FFF798FF10B110
:1036E0004FF0FF30DDE730193A4601A903F000FF43
:1036F00010B16FF00100D4E7E01984B2AC42D9DB1D
:103700004FEA28208DF8000008F0FF008DF8010036
:10371000064A1268917E054A526810786B4602226A
:10372000FEF76BF838B103E04C9C0008F00700206E
:103730004FF0FF30B5E70121FE4880F82510A0F8D2
:1037400026900020ADE70146FA4890F82400087062
:10375000002070474FF0FF30704702464FF0FF30B7
:10376000704701464FF0FF307047F8B505460F46E9
:103770001446002C70D0B5F5FF5F01DDFF2605E093
:10378000202D01DA012601E0C5F3471607B901270C
:10379000282C02DD4FF0FF30F8BDE648407D28BB05
:1037A000E44890F8240038B10020FFF723FE0121FF
:1037B000E04880F8201003E00021DE4880F8201067
:1037C000DC481630FFF751F8DA481830FFF76DF88B
:1037D000D8481A30FFF78DF8D6481C30FFF7AEF8FE
:1037E000D448817A81771F30FFF702F90020FEF775
:1037F0005FF90020FEF788FC00208DF80000CD4A1C
:1038000012689178CB4A526810786B460122FDF716
:10381000F4FF10B14FF0FF30BEE740208DF80000FC
:10382000C44A1268D17BC34A526810786B460122A1
:10383000FDF7E3FF00B165E08DF800608DF80170E1
:10384000BC4A1268117ABB4A526810786B46022251
:10385000FDF7D3FF08B155E047E00520FCF749FE2E
:10386000B448407A072101EBC000C0B28DF80000D7
:10387000B04A1268D179AF4A526810786B4601227B
:10388000FDF7BBFF00B13DE020208DF80000012CCA
:1038900003D100208DF801000EE0052C03DC01208F
:1038A0008DF8010008E0142C03DC02208DF80100E3
:1038B00002E003208DF801009DF80100072101EBD3
:1038C0008010C0B28DF801009A4A1268917C994A22
:1038D000526810786B460222FDF78FFF00B111E0AD
:1038E000012194484175002056E7924A1632002182
:1038F00003E0505C00B105E0491C0C29F9D34FF0FE
:10390000FF3049E7FF208B490872FF218948417247
:10391000C1724FF6FF71C181FF21817201740121D3
:1039200001730146887FFEF786F98249C88AFEF74F
:10393000E6FC8049087EFEF7A0FC7E49488BFEF736
:10394000A4FB7C49888BFEF74CFC7A49C87FFEF7C4
:1039500067FB784890F8200010B10120FFF74AFD7E
:10396000002174484175002016E770B588B002A99F
:1039700005A8FFF784FD0446072C3ED101A8FEF7F9
:10398000F3FF059805F0F6FA0646019905F052FB9B
:10399000054605F0B3FA0590069805F0EBFA0646E1
:1039A000019905F047FB054605F0A8FA069007982F
:1039B00005F0E0FA0646019905F03CFB054605F0E6
:1039C0009DFA079005A800F052FA6846FEF7E9FF55
:1039D000BDF80010029848430290BDF8001003980B
:1039E00048430390BDF8001004984843049002A88F
:1039F00000F0D0FA002008B070BD0120FBE70146BE
:103A000091F90020002A01DD00201EE091F900203C
:103A1000002A01DA042018E091F90120002A01DDD2
:103A2000012012E091F90120002A01DA05200CE0C2
:103A300091F90220002A01DD022006E091F902201E
:103A4000002A01DA062000E00720704710B504467E
:103A50002046FFF7D4FF0346E01CFFF7D0FF43EA00
:103A6000C00083B2A01DFFF7CAFF43EA801083B2F3
:103A7000184610BD70B50024FDF7FDFEFEF781FC71
:103A800000283DD17820FEF7D6F8C4B20CB1012051
:103A900070BD7820FEF7C4FAC4B20CB10220F7E77B
:103AA0006420FEF79EFBC4B20CB10320F0E700F0E7
:103AB00043F9C4B20CB10420EAE71F48FFF7C6FF80
:103AC000054600F043F9C4B20CB10520E0E740F22E
:103AD000731000F07CFDC4B20CB10620D8E764205E
:103AE00000F0EEFAC4B20CB10720D1E7FFF73DFFBA
:103AF00004460120FFF77EFCC4B21CB10920C7E7D1
:103B00000A20C5E70020C3E72DE9F04F99B004462D
:103B10000D4616464FF07E574FF000084FF0000953
:103B20004FF0000A12A813A918AB0EAACDE9001095
:103B300014A903E0F00700201C08002016A800F0DC
:103B4000A5FE18B1012019B0BDE8F08FBDF84C00FA
:103B500000F4807000287CD00E9805F00BFA8346A4
:103B60004FF09D4105F0D4F807460F9805F002FA92
:103B700083464FF09D4105F0CBF88046109805F044
:103B8000F9F983464FF09D4105F0C2F8814611983E
:103B900005F0F0F983464FF09D4105F0B9F88246F3
:103BA00039464FF0804005F045FA4946059005F04A
:103BB00041FA414607904FF0404005F03BFA51462C
:103BC000059005F037FA0690079905F033F883461B
:103BD00005F004F8CDE9080103F0EEFE4FF066327F
:103BE000544BCDE90A0104F01FFDCDE90C0104F0AE
:103BF00011FA206049464FF0804005F01BFA494613
:103C0000029005F017FA414604904FF0404005F04D
:103C100011FA4146029005F00DFA0390049905F05F
:103C200007FB83464FF07E5105F004F8059004F041
:103C3000D5FFCDE9080139464FF0804005F0FAF98B
:103C40004146039005F0F6F9494604904FF0804054
:103C500000E06AE005F0EEF95146039005F0EAF95C
:103C60008346049904F0E6FF059004F0B7FFCDE920
:103C70000601DDE9082304F0E7F84FF066322D4B2A
:103C8000CDE90A0104F0D0FCCDE90C0104F0C2F941
:103C900028605146504605F0CDF949460490484603
:103CA00005F0C8F941460390404605F0C3F939468E
:103CB0000190384605F0BEF90090019904F0BAFF72
:103CC0000290039905F0B4FA8346049905F0B0FA1E
:103CD000059004F083FFCDE908015146384605F010
:103CE000A9F949460490404605F0A4F903900499C7
:103CF00004F0A0FF4FF08041059005F09BF983464A
:103D000004F06CFFCDE90601DDE9082304F09CF81E
:103D10004FF06632074BCDE90A0104F085FCCDE98E
:103D20000C0104F077F9306001E002200BE700207D
:103D300009E7000066A64C4010B5C8234FF4806226
:103D4000F74940F6F630FFF79FFC10BD10B586B07E
:103D50000446F4A000680390F3A000680290F3A06A
:103D600000680190F2A00068009004F0030003A92D
:103D7000085C8DF8140003A8C4F3C101405C8DF801
:103D8000150003A8C4F38111405C8DF8160004F0FF
:103D9000030002A9085C8DF8100002A8C4F3C10159
:103DA000405C8DF8110002A8C4F38111405C8DF8CD
:103DB000120005AA032140F22640FFF7EBFB18B1E1
:103DC0004FF0FF3006B010BD04AA032140F22A4094
:103DD000FFF7E0FB10B14FF0FF30F3E701980590DB
:103DE0000098049004F0040058B19DF8140040F0CD
:103DF00001008DF814009DF8100040F001008DF8CE
:103E0000100004F0200058B19DF8150040F00100AA
:103E10008DF815009DF8110040F001008DF811009B
:103E200004F4807058B19DF8160040F001008DF840
:103E300016009DF8120040F001008DF8120005AA4E
:103E400003214FF48860FFF7A5FB10B14FF0FF305E
:103E5000B8E704AA032140F23140FFF79BFB10B101
:103E60004FF0FF30AEE7B34804810020AAE71FB54A
:103E70000446B048007A00F0030054F82000019096
:103E8000AC48007A00F0040010B101984042019063
:103E9000A848007AC0F3C10054F820000290A54859
:103EA000007A00F0200010B1029840420290A14830
:103EB000007AC0F3811054F8200003909D480089D7
:103EC00000F4807010B10398404203909A49019821
:103ED00080FB0101800F40EA810001909649029821
:103EE00080FB0110820042EA91700290924903988F
:103EF00080FB0110820042EA917003900198000E4D
:103F00008DF800000198000C8DF801000198000A5E
:103F10008DF802000198C0B28DF803006A460421B2
:103F20004FF47470FFF736FB18B14FF0FF3004B058
:103F300010BD0298000E8DF800000298000C8DF85C
:103F400001000298000A8DF802000298C0B28DF8B4
:103F500003006A4604214FF47570FFF71BFB10B194
:103F60004FF0FF30E3E70398000E8DF80000039850
:103F7000000C8DF801000398000A8DF802000398E8
:103F8000C0B28DF803006A4604214FF47670FFF743
:103F900001FBCCE770B588B0064601A8FEF701FD2D
:103FA000BDF804000021C90341EA5045C40361483B
:103FB000007A00F0030056F8200005905D48007A72
:103FC00000F0040010B10598404205905948007A6D
:103FD000C0F3C10056F8200006905648007A00F061
:103FE000200010B10698404206905248007AC0F373
:103FF000811056F8200007904E48008900F4807028
:1040000010B10798404207900598C117A0FB042300
:1040100001FB043100FB0510810041EA927005901C
:104020000698C117A0FB042301FB043100FB051017
:10403000810041EA927006900798C117A0FB042303
:1040400001FB043100FB0510810041EA92700790EA
:104050000598000E8DF808000598000C8DF80900F1
:104060000598000A8DF80A000598C0B28DF80B007B
:104070000698000E8DF80C000698000C8DF80D00C7
:104080000698000A8DF80E000698C0B28DF80F0051
:104090000798000E8DF810000798000C8DF811009D
:1040A0000798000A8DF812000798C0B28DF8130027
:1040B00002AA0C214FF42570FFF76CFA08B070BD0E
:1040C00030B585B004461DA207CA02AB07C3C82C91
:1040D00003DD4FF0FF3005B030BDC82090FBF4F099
:1040E000401E85B2280A8DF80000E8B28DF8010064
:1040F0006A46022140F21620FFF74CFA10B14FF049
:10410000FF30E8E702AA0C2140F6C120FFF742FA8F
:1041100010B14FF0FF30DEE7064884810020DAE777
:10412000749C00084CCD6C000CC92C0036567600EF
:1041300026466600CC08002009E3CA02FEF2ABC4A2
:10414000AAF1DFDFBBAFDFDF0146FC4880890880D2
:10415000002070472DE9FC4706460F4606F0070091
:1041600010B1B7F5C86F03DD4FF0FF30BDE8FC8735
:10417000384604F017FF8146F14904F0C9FD804636
:104180006846FEF792FB9DF80000022806D004283E
:1041900016D0082826D0102848D135E04FF08D41A0
:1041A000404604F047FF814604F0C4FE84B2E5496E
:1041B000404604F03FFF814604F0BCFE85B238E083
:1041C0004FF08C41404604F035FF814604F0B2FECA
:1041D00084B2DD49404604F02DFF814604F0AAFE7A
:1041E00085B226E04FF08B41404604F023FF814624
:1041F00004F0A0FE84B2D549404604F01BFF81467E
:1042000004F098FE85B214E04FF08A41404604F075
:1042100011FF814604F08EFE84B2CD49404604F081
:1042200009FF814604F086FE85B202E04FF0FF30C0
:104230009CE700BF20128DF80400E0B28DF8050065
:1042400028128DF80600E8B28DF8070006F001008C
:10425000A0B101AA02214FF4EA70FFF79BF910B157
:104260004FF0FF3082E70DF1060202214FF4927009
:10427000FFF790F910B14FF0FF3077E706F002003A
:10428000A0B101AA02214FF4EC70FFF783F910B13D
:104290004FF0FF306AE70DF1060202214FF49470EF
:1042A000FFF778F910B14FF0FF305FE706F0040038
:1042B000A0B101AA02214FF4EE70FFF76BF910B123
:1042C0004FF0FF3052E70DF1060202214FF49670D5
:1042D000FFF760F910B14FF0FF3047E7002045E7E6
:1042E00038B504460020009004F0010020B19DF88C
:1042F000000040F03000009004F0020020B19DF872
:10430000000040F00C00009004F0040020B19DF883
:10431000000040F0030000906A4601214FF4A470B1
:10432000FFF738F938BD38B50446012C01DA01240D
:1043300002E0042C00DD0424601EC0B200906A4636
:10434000012140F24F10FFF725F938BD38B504467A
:10435000052094FBF0F085B228128DF80000E8B239
:104360008DF801006A4602214FF4EF70FFF712F951
:1043700038BD38B50446052094FBF0F085B228120C
:104380008DF80000E8B28DF801006A4602214FF472
:10439000ED70FFF7FFF838BDF8B505460E464FF44F
:1043A0007A7095FBF0F000FB06F4200E8DF800000B
:1043B000200C8DF80100200A8DF80200E0B28DF883
:1043C00003006A4604214FF4AE70FFF7E3F8F8BD2E
:1043D00038B50446052094FBF0F084B220128DF825
:1043E0000000E0B28DF801006A4602214FF4AD7082
:1043F000FFF7D0F838BD38B50446052094FBF0F03F
:1044000084B220128DF80000E0B28DF801006A46F7
:1044100002214FF4AC70FFF7BDF838BD38B5044643
:1044200014B94FF0FF3038BD6A4604214FF458707C
:10443000FFF7EDF810B14FF0FF30F4E79DF8000002
:1044400000069DF8011040EA01409DF8021040EA84
:1044500001209DF80310084320600020E3E738B5F1
:104460000446200E8DF80000200C8DF80100200A73
:104470008DF80200E0B28DF803006A4604214FF483
:104480005870FFF787F838BD38B5044614B94FF0B7
:10449000FF3038BD6A4604214FF47170FFF7B7F85A
:1044A00010B14FF0FF30F4E79DF8000000069DF8D2
:1044B000011040EA01409DF8021040EA01209DF8F9
:1044C0000310084300EB8000800020600020E0E73C
:1044D00038B504461420B4FBF0F4200E8DF800002B
:1044E000200C8DF80100200A8DF80200E0B28DF852
:1044F00003006A4604214FF47170FFF74BF838BD92
:1045000038B5044664B120208DF8000028208DF8CD
:10451000010030208DF8020038208DF8030004E0FF
:10452000A3220421684603F02EF86A46042140F6CF
:104530009E20FFF72FF8FDF787FC38BDCC08002040
:1045400000004843000040460000C04500004045D0
:104550000000C04438B5044664B1C0208DF80000A6
:10456000C2208DF80100C4208DF80200C6208DF80D
:10457000030004E08B220421684603F004F86A4635
:10458000042140F69820FFF705F8FDF75DFC38BDE3
:104590003EB504466CB1FDA1D1E900208968CDE9A2
:1045A000002002916A4609214FF49760FEF7F2FF5E
:1045B0003EBDF9A2D2E900109268CDE90102009156
:1045C0006A4609214FF49760FEF7E4FFF0E73EB535
:1045D000044602208DF80000CA208DF80100E32077
:1045E0008DF8020009208DF803006A460421682036
:1045F000FEF7D0FFA3208DF8000004F0400048B182
:10460000C0208DF80100C8208DF80200C2208DF86E
:10461000030006E0A3208DF801008DF802008DF85C
:10462000030004F4C07048B1C4208DF80400CC200D
:104630008DF80500C6208DF8060006E0A3208DF851
:1046400004008DF805008DF80600A3208DF8070002
:104650008DF808008DF809006A460A2140F6A72067
:10466000FEF798FF04F0030018B120208DF8000039
:1046700002E0D8208DF800006A46012140F6B620FD
:10468000FEF788FF04F0200018B10120FFF780FF3B
:1046900002E00020FFF77CFF04F4C07008B304F4CC
:1046A000807060B1B2208DF800008B208DF8010081
:1046B000B6208DF802009B208DF803000BE0B0209F
:1046C0008DF8000080208DF80100B4208DF80200E4
:1046D00090208DF803006A46042140F6A220FEF7E0
:1046E00059FF04F0010020B3F8208DF800006A465D
:1046F00001214FF40B60FEF74DFFFA210720FFF771
:1047000029FD0720FFF7ECFD0120FFF70CFE6420D8
:10471000FFF71CFE4FF4FA70FFF72BFEC821A148EB
:10472000FFF73AFE2820FFF753FE0A20FFF763FE4B
:1047300008E0D8208DF800006A4601214FF40B6094
:10474000FEF728FF04F0020018B1D9208DF8000010
:1047500002E0D8208DF800006A46012140F23D7049
:10476000FEF718FF04F0040018B10120FFF7F2FE75
:1047700002E00020FFF7EEFE04F0100018B1012067
:10478000FFF7BEFE02E00020FFF7BAFE44F008008B
:1047900085494881FDF758FB00208349887304F060
:1047A000400018B10846807B801D887304F4C070F7
:1047B00020B17D48807B801D7B49887304F0140004
:1047C00020B17948807B10307749887304F003006A
:1047D00020B17548807B001D7349887300203EBD61
:1047E0000146714840890880002070472DE9F0415A
:1047F0000446E07800F0C006E07800F03F056078FD
:1048000000F0010098B1EF102846E91705EB51714F
:10481000C910A5EBC101491C01F0FF0862480068FE
:1048200020B16148414602683846904700BF607831
:1048300000F0080030B15C48406818B1B0115A4A25
:10484000516888470020BDE8F08110B586B0044665
:1048500056A207CA03AB07C357A207CA8DE80700D1
:10486000012C09D0022C0ED103AA0B2140F6822084
:10487000FEF790FE06B010BD6A460B2140F682207E
:10488000FEF788FEF6E74FF0FF30F3E72DE9F04F33
:104890008DB00746884615469946DDE9166B00241B
:1048A000002030804049887B5A4605A9FEF7D5F99B
:1048B00018B1601E0DB0BDE8F08F3B48807A00F063
:1048C0001400002861D09DF8140000069DF8151012
:1048D00040EA01409DF8161040EA01209DF81710AB
:1048E000084328609DF8180000069DF8191040EA5A
:1048F00001409DF81A1040EA01209DF81B10084362
:1049000068609DF81C0000069DF81D1040EA0140FB
:104910009DF81E1040EA01209DF81F100843A86072
:104920009DF8200000069DF8211040EA01409DF806
:10493000221040EA01209DF823100843E86004F1AA
:104940001000C4B228680014019068680014029036
:10495000A86800140390E86800140490019840438C
:10496000029901FB0100039901FB0100049901FB7D
:10497000010ABAF1706F02DBBAF1885F22DDFDF740
:1049800063FA00203080401E94E721E0B8AAB38D7E
:10499000B4980D355D000000B8AAAAAAB088C3C5B6
:1049A000C700000009E3CA02CC080020D8B1B9F35F
:1049B0008BA391B609B4D900DAB1B9F38BA391B640
:1049C000DAB4DA00B6F9000040F48070308000BF3D
:1049D0003448807A00F0400020B305A9601C085CD0
:1049E000095D40EA012000B2A8F8000005A9E01C1A
:1049F000095C05AAA01C105C41EA002000B2A8F8DE
:104A0000020005A9601D095C201D105C41EA002020
:104A100000B2A8F80400A01DC4B2B6F9000040F02E
:104A2000080030801F48408900F4C07008B305A911
:104A3000601C085C095D40EA012000B2388005A9CD
:104A4000E01C095C05AAA01C105C41EA002000B231
:104A5000788005A9601D095C201D105C41EA0020DA
:104A600000B2B880A01DC4B2B6F9000040F07000DA
:104A700030800C48807A00F0030018B105A90819AD
:104A8000FFF7B4FE4846FDF74CFD002012E7014653
:104A90000448016000207047014602484160002040
:104AA00070470000CC08002010B586B004460121F4
:104AB000082001F049FA0121880401F052FA4FF46C
:104AC0008060ADF8140003208DF8160018208DF8D2
:104AD000170005A98D4800F07BFF4FF40060ADF88A
:104AE000140004208DF8170005A9884800F070FF15
:104AF00001940020ADF80800ADF80A00ADF80C00F4
:104B0000ADF810000C20ADF80E0001A9804802F0AD
:104B1000D0F9012240F225517D4802F062FA0121CC
:104B20007B4802F052FA06B010BD10B5044621468B
:104B3000774802F0B7FA00BF4021754802F020FB29
:104B40000128F9D110BD70B504460D46002605E0D8
:104B500014F8010BFFF7E9FF701C86B2AE42F7DBD9
:104B600070BD70B50446204602F0EEFC86B200250A
:104B700005E014F8010BFFF7D8FF681C85B2B542B9
:104B8000F7DB70BD2DE9F04140F22551604802F09D
:104B90000DFB002876D05E4802F088FA5D49088057
:104BA0000846008870B95C48006804F017F80646AB
:104BB0005A4A5B4B03F060FA044603F02BFA56495D
:104BC00008605AE05348008801280ED15548006813
:104BD00004F004F80646514A514B03F04DFA0446DE
:104BE00003F018FA4F49086047E04A480088022855
:104BF00002D14D49087040E04648008803280ED194
:104C00004548006803F0EAFF0646444A444B03F077
:104C1000FBFE044603F0FEF93F4908602DE03D48E5
:104C2000008804280ED13F48006803F0D7FF0646ED
:104C30003A4A3B4B03F0E8FE044603F0EBF93949EE
:104C400008601AE033480088052802D13649087008
:104C500013E030480088062802D1334908700CE080
:104C60002C480088072802D12F49087005E0294800
:104C70000088082801D12C4908702B480178244865
:104C800002F010FABDE8F08170B504460D462946E1
:104C9000204602F007FA00BF8021204602F070FA99
:104CA0000028F9D070BD70B506460C46002500BF3F
:104CB000615D3046FFF7E8FF6D1C605D0028F7D1AD
:104CC00000BF4021304602F05BFA0028F9D070BDE9
:104CD0002DE9F04105460C46260AE7B23146284642
:104CE00002F0E0F900BF8021284602F049FA0028CE
:104CF000F9D03946284602F0D5F900BF8021284670
:104D000002F03EFA0028F9D0BDE8F081000C014025
:104D100000480040280800203C0800209A999999F2
:104D20009999B93F400800200400002000B587B0E1
:104D30000121084601F015F90121042001F004F9D0
:104D40000320ADF8000004208DF803006946614897
:104D500000F03EFE04A801F05BFD0020ADF810005D
:104D60004FF6FF70ADF814000020ADF81600ADF856
:104D7000120004A94FF0804001F01EFA00231A46E9
:104D800003214FF0804001F026FE01A801F053FD01
:104D90000A20ADF80C0001A9400701F0A0FC012198
:104DA000880702F02BF801221146900701F07BFDE5
:104DB00000214FF0804001F0EFFF0121880701F052
:104DC00057FD07B000BD00B587B00121042001F0F8
:104DD000C8F80121082001F0B7F8C020ADF80000A4
:104DE00004208DF8030069463B4800F0F1FD04A85B
:104DF00001F00EFD0020ADF810004FF6FF70ADF889
:104E000014000020ADF81600ADF8120004A93348D4
:104E100001F0D2F900231A460321304801F0DBFDEE
:104E200001A801F008FD0A20ADF80C0001A92B48EB
:104E300001F055FC0121294801F0E0FF0122114653
:104E4000264801F030FD0021244801F0A5FF012192
:104E5000224801F00DFD07B000BD0146022904D033
:104E600003290BD0042919D10FE04FF08042928C16
:104E700010B200224FF080439A8411E0184A128841
:104E800010B20022164B1A800AE0144A243212880B
:104E900010B20022114B24331A8001E0002000BF21
:104EA00000BF70470D48103000880C481030008853
:104EB00020F0010009491031088070474FF0804010
:104EC000008A4FF08040008A20F001004FF08041BE
:104ED0000882704700080140000C014000080040B3
:104EE000240400401FB50121084601F02DF80121DE
:104EF000082001F029F82020ADF80C0048208DF89A
:104F00000F0003A9114800F063FD0521012000F006
:104F100075FE2020019000208DF808000C208DF8EF
:104F2000090001208DF80A0001A800F071FC17208B
:104F30008DF8000000208DF8010001208DF802009E
:104F40008DF80300684600F0ECFB1FBD000C01402B
:104F50002DE9F84F05460E469146F34CDFF8CCA3F9
:104F60004FF0000BF2480068012803D0F1480068B8
:104F7000012834D14FF07E51EF48006803F05AFE0B
:104F8000ED49074608604FF07E5103F083FF07D1DB
:104F9000A81900F0A7FA074603F0ECFFE7490860FC
:104FA000E6480168E64803F0B3FEE64908600846B3
:104FB000006803F013FE07464FF03332E24B03F074
:104FC000F7FA02D2E148DF490860E149DD480068AC
:104FD00004F0FCF80BD2DE48DA49086007E0DD484F
:104FE000D84908600020D4490860D4490860D048F6
:104FF0000068012808D1D3480168D748006803F049
:1050000019FED54908600FE0CA480068012808D198
:10501000CC480168D048006804F00AF9CE4908601D
:1050200002E00020CC4908602146CB48006804F02B
:10503000CDF801D2C848046084F00047C648016832
:10504000384604F0C3F803D284F00040C249086037
:10505000C2480068012803D0C1480068012802D175
:105060004FF07C5B01E04FF0000B5946484603F0DF
:10507000E1FF0090B848006880F000485146404683
:1050800003F0D8FF0746009904F0D2F8B54908604C
:105090000846006803F032FFBDE8F88F2DE9F05FA5
:1050A000AE480068012806D10020AF490870AF481B
:1050B000AF4908600FE0AA480068012806D1002027
:1050C000A9490870AB48AA49086004E00020A64935
:1050D0000870A7490860A8490968A84A12681144DD
:1050E000084603F047FFA6490860A648006803F099
:1050F00075FD0646A44AA54B03F096FA044602F055
:1051000089FFA04908609E48006803F067FD80465B
:105110009D4A9F4B03F088FA04460D469948006863
:1051200003F05CFD064622462B4602F0A5FF8246B0
:1051300002F070FF934908600846016895480068CE
:1051400003F078FD93490860894801689148006838
:1051500004F06EF88F4908608F498E48006804F0AB
:1051600035F802D28C488B4908608C498948006820
:1051700003F02CFF02D289488649086088480168FC
:105180008448006803F056FF0446864801687D485D
:10519000006803F04FFF0546214603F04BFD8249AE
:1051A000086082498248006803F010FF05D38149F6
:1051B0007F48006804F00AF802D2002075490860B0
:1051C0007948006803F09AFEBDE8F09F2DE9F05F92
:1051D00005460E4614463146284604F029F8814615
:1051E00021467548006803F025FF8246494673480A
:1051F000006803F01FFF8346514603F01BFD804605
:1052000003F07CFE07463846BDE8F09F2DE9F041EB
:105210006B48006800287DD120206A4908606A4AEE
:105220006A496348FEF770FC694A6A496A48FCF7B4
:1052300094FA0220FFF711FE504908600420FFF79E
:105240000CFE40424C49086064480078401C6349A9
:105250000870084600780A2803D10020087000F082
:1052600026FA5C48B0F9000003F084FE04462246AA
:105270005B4801684E480068FFF7A8FF594908607D
:105280003E4801683C480068FFF708FF564908603F
:1052900027480068012803D02648006801280FD15C
:1052A0004B48B0F9000003F065FE0446224633483F
:1052B000016831480068FFF74BFE4C4908600EE07A
:1052C0004348B0F9000003F048F906460022484B75
:1052D00003F0AAF9044603F0E3F8444908604148A2
:1052E000006841490968401A40490968401A414923
:1052F00008603C4800683C490968401A3B49096815
:1053000008443D49086000F029F92948006800F088
:1053100048F900E005E0384801683648006800F0C8
:10532000E8F8BDE8F08100000000C8420000A0419C
:105330004000002044000020740800206C08002079
:1053400000005C42700800203333E33F9A99193F14
:10535000000040406666663F640800203800002078
:105360003C0000206808002048000020000016C310
:105370005C08002000001643280000202C000020BC
:1053800054080020580800209A9999999999E93F62
:105390009999C93F6008002000401C4600401CC687
:1053A000480800204408002050080020000020C2C7
:1053B0000C00002000002042400800203C08002093
:1053C0001481214214040140140000201000002028
:1053D00022000020200000201E0000204C08002099
:1053E000380800202C080020300800203408002055
:1053F0000000E0BF300000203400002030B589B04C
:1054000005460C460121C80200F09EFD0121042042
:1054100000F09AFD4FF41060ADF8200018208DF8D0
:10542000230003208DF8220008A91C4800F0D0FAC0
:10543000ADF81850ADF814400020ADF81A00ADF8E2
:10544000160005A9164800F0B7FE6020ADF804006C
:105450000120ADF806000020ADF80A00ADF80C0000
:1054600001A90F4800F0E5FE01A90D4800F0BBFFBF
:1054700001210B4801F008FA0821094801F028FB36
:105480000821074801F043FB0121054801F0F0FA2B
:105490000121034801F0ECF909B030BD00080140DA
:1054A000002C014008B50121082000F04DFD4FF40B
:1054B0007040ADF8000010208DF8030003208DF837
:1054C00002006946404800F083FA00203F49086026
:1054D0003F49C1F8B0013D49091D08603C49C1F888
:1054E000B80108BD0146002901DA484200E008463B
:1054F000704700B503460A46002B08DA00203349FE
:10550000091F086001203249C1F8B40107E00120F9
:105510002E49091F086000202D49C1F8B401184622
:10552000FFF7E0FF2B490880002A08DA012027490D
:10553000091D086000202649C1F8BC0107E00020D1
:105540002249091D086001202149C1F8BC0110460B
:10555000FFF7C8FF1F490C31088000BD1E480068D6
:105560001E49884202DA08461B4908601A4800684A
:1055700041F65831884202DD08461749086018484C
:1055800000681649884202DA08461549086014483E
:10559000006841F65831884202DD0846104908602B
:1055A000704710B504460F49204603F00FFD04D3A1
:1055B0000D49204603F00AFE04D200200649086087
:1055C0000749086010BD0000000C0140B481214271
:1055D00000802142342C014030000020A8E4FFFF6D
:1055E00034000020000020C2000020420EB501213E
:1055F000052000F0A9FC0820ADF8080010208DF867
:105600000B0003208DF80A0002A92F4800F0E0F9F2
:105610000420ADF8080028208DF80B0002A92A48C4
:1056200000F0D6F90221002000F0E8FA04200090F2
:1056300000208DF8040008208DF8050001208DF869
:105640000600684600F0E4F80EBD2DE9F0410A209E
:10565000FAF72BFF042000F041F930B300211B487A
:1056600001F09AFB0121194801F002F900BF042161
:10567000154800F040FA0028F9D10021134801F044
:10568000F7F8124801F0ABFB804602F07DFF0646BA
:105690004FF033320E4B02F0C7FF044602F0BAFC63
:1056A0000C490860042000F02AF9BDE8F08110B52B
:1056B0000821054800F039FA1420FAF7F6FE08210F
:1056C000014800F034FA10BD000801400004004019
:1056D0003333FB3F24000020094880470948004736
:1056E000FEE7FEE7FEE7FEE7FEE7FEE7FEE7FEE792
:1056F000FEE7FEE704480549054A064B70470000EF
:1057000077030008ED00000840090020400F00204A
:10571000400B0020400B002031490143314A116009
:10572000704770B5002100230F22C47804B32D4CBC
:10573000246804F4E064C4F5E064210AC1F10403C0
:10574000CA40447804FA03F18478144021430901E3
:10575000254C0678A155047804F01F050124AC40BF
:1057600005786D11AD0005F1E025C5F8004109E0AF
:10577000047804F01F050124AC401C4D0678761116
:1057800045F8264070BD1A4A0A400243154B1B1FBC
:105790001A60704739B1134A121D12680243114B47
:1057A0001B1D1A6006E00F4A121D126882430D4B42
:1057B0001B1D1A607047042808D14FF0E0210969C9
:1057C00041F004014FF0E022116107E04FF0E021C9
:1057D000096921F004014FF0E022116170470000D7
:1057E0000000FA050CED00E000E400E080E100E0DC
:1057F00080FFFF1F002044490860091D0860091D43
:105800000860091D086041483F491431086070472D
:1058100000213D498279002A3AD00A46126803687D
:105820009A430B461A600A1D126803689A430B1DBF
:105830001A60027911440A6803681A430A60324AFE
:105840000832126803689A432F4B08331A601A1DF6
:10585000126803689A432C4B0C331A604279102A61
:105860000ED11A1F126803681A43274B08331A60B7
:105870001A1D126803681A43234B0C331A600DE09B
:105880002149427911440A6803681A430A6005E015
:10589000027911440A6803689A430A60704700213C
:1058A000016001710C21417100218171704716491D
:1058B000103109680143144A1032116070470146E3
:1058C0000020114A143212680A400AB1012000E097
:1058D000002070470C4914310860704701460020D1
:1058E0000022094B1B6803EA0102074B14331B68B3
:1058F0000B4013B10AB1012000E0002070470249BB
:10590000143108607047000000040140FFFF0F00E1
:1059100010B50446CC48844208D10121042000F08F
:105920002DFB0021042000F029FB46E0C7488442FB
:1059300008D10121082000F021FB0021082000F0FF
:105940001DFB3AE0C248844208D10121102000F03A
:1059500015FB0021102000F011FB2EE0BD48844211
:1059600008D10121202000F009FB0021202000F0B7
:1059700005FB22E0B848844208D10121402000F014
:10598000FDFA0021402000F0F9FA16E0B348844205
:1059900008D10121802000F0F1FA0021802000F0E0
:1059A000EDFA0AE0AE48844207D10121801500F0EB
:1059B000E5FA0021A01500F0E1FA10BD10B50121B3
:1059C000084600F0DBFA0021012000F0D7FA10BDF4
:1059D0002DE9F04102460025002600200023002486
:1059E000002791F803C00CF00F0591F803C00CF0EC
:1059F000100CBCF1000F03D091F802C04CEA050571
:105A000091F800C0BCF1000F31D0146800202BE0E9
:105A10004FF0010C0CFA00F3B1F800C00CEA0306D9
:105A20009E4220D183004FF00F0C0CFA03F7BC43C9
:105A300005FA03FC4CEA040491F803C0BCF1280FFA
:105A400006D14FF0010C0CFA00FCC2F814C00AE0B9
:105A500091F803C0BCF1480F05D14FF0010C0CFACE
:105A600000FCC2F810C0401C0828D1D31460B1F863
:105A700000C0BCF1FF0F34DD546800202EE000F1BF
:105A8000080C4FF0010808FA0CF3B1F800C00CEA5A
:105A900003069E4221D183004FF00F0C0CFA03F74E
:105AA000BC4305FA03FC4CEA040491F803C0BCF1C2
:105AB000280F05D100F1080C08FA0CF8C2F8148080
:105AC00091F803C0BCF1480F07D100F1080C4FF06A
:105AD000010808FA0CF8C2F81080401C0828CED340
